{"contracts/DebateSession.sol":{"DebateSession":{"abi":[{"inputs":[],"stateMutability":"nonpayable","type":"constructor"},{"inputs":[{"internalType":"address","name":"owner","type":"address"}],"name":"OwnableInvalidOwner","type":"error"},{"inputs":[{"internalType":"address","name":"account","type":"address"}],"name":"OwnableUnauthorizedAccount","type":"error"},{"anonymous":false,"inputs":[{"indexed":true,"internalType":"uint256","name":"debateId","type":"uint256"},{"indexed":false,"internalType":"bool","name":"consensusReached","type":"bool"},{"indexed":false,"internalType":"string","name":"policyHash","type":"string"}],"name":"DebateCompleted","type":"event"},{"anonymous":false,"inputs":[{"indexed":true,"internalType":"uint256","name":"debateId","type":"uint256"},{"indexed":false,"internalType":"string","name":"topic","type":"string"},{"indexed":false,"internalType":"address","name":"initiator","type":"address"}],"name":"DebateStarted","type":"event"},{"anonymous":false,"inputs":[{"indexed":true,"internalType":"address","name":"previousOwner","type":"address"},{"indexed":true,"internalType":"address","name":"newOwner","type":"address"}],"name":"OwnershipTransferred","type":"event"},{"anonymous":false,"inputs":[{"indexed":true,"internalType":"uint256","name":"debateId","type":"uint256"},{"indexed":false,"internalType":"enum DebateSession.Phase","name":"newPhase","type":"uint8"}],"name":"PhaseAdvanced","type":"event"},{"anonymous":false,"inputs":[{"indexed":true,"internalType":"uint256","name":"debateId","type":"uint256"},{"indexed":false,"internalType":"string","name":"agentId","type":"string"},{"indexed":false,"internalType":"uint256","name":"timestamp","type":"uint256"}],"name":"StatementRecorded","type":"event"},{"anonymous":false,"inputs":[{"indexed":true,"internalType":"uint256","name":"debateId","type":"uint256"},{"indexed":false,"internalType":"string","name":"agentId","type":"string"},{"indexed":false,"internalType":"bool","name":"support","type":"bool"}],"name":"VoteCast","type":"event"},{"inputs":[{"internalType":"uint256","name":"debateId","type":"uint256"}],"name":"advancePhase","outputs":[],"stateMutability":"nonpayable","type":"function"},{"inputs":[{"internalType":"uint256","name":"debateId","type":"uint256"},{"internalType":"string","name":"ipfsTranscriptHash","type":"string"},{"internalType":"string","name":"finalPolicyIpfsHash","type":"string"},{"internalType":"bool","name":"consensusReached","type":"bool"},{"internalType":"uint256","name":"consensusPercentage","type":"uint256"}],"name":"completeDebate","outputs":[],"stateMutability":"nonpayable","type":"function"},{"inputs":[],"name":"debateCounter","outputs":[{"internalType":"uint256","name":"","type":"uint256"}],"stateMutability":"view","type":"function"},{"inputs":[{"internalType":"uint256","name":"","type":"uint256"},{"internalType":"uint256","name":"","type":"uint256"}],"name":"debateStatements","outputs":[{"internalType":"string","name":"agentId","type":"string"},{"internalType":"string","name":"statementHash","type":"string"},{"internalType":"uint256","name":"timestamp","type":"uint256"},{"internalType":"string","name":"ipfsContentHash","type":"string"},{"internalType":"bytes","name":"agentSignature","type":"bytes"}],"stateMutability":"view","type":"function"},{"inputs":[{"internalType":"uint256","name":"","type":"uint256"},{"internalType":"uint256","name":"","type":"uint256"}],"name":"debateVotes","outputs":[{"internalType":"string","name":"agentId","type":"string"},{"internalType":"bool","name":"support","type":"bool"},{"internalType":"uint256","name":"confidence","type":"uint256"},{"internalType":"string","name":"reasoning","type":"string"}],"stateMutability":"view","type":"function"},{"inputs":[{"internalType":"uint256","name":"","type":"uint256"}],"name":"debates","outputs":[{"internalType":"uint256","name":"debateId","type":"uint256"},{"internalType":"string","name":"topic","type":"string"},{"internalType":"string","name":"ipfsTranscriptHash","type":"string"},{"internalType":"enum DebateSession.Phase","name":"currentPhase","type":"uint8"},{"internalType":"uint256","name":"startTime","type":"uint256"},{"internalType":"uint256","name":"endTime","type":"uint256"},{"internalType":"bool","name":"consensusReached","type":"bool"},{"internalType":"uint256","name":"consensusPercentage","type":"uint256"},{"internalType":"string","name":"finalPolicyIpfsHash","type":"string"},{"internalType":"address","name":"initiator","type":"address"}],"stateMutability":"view","type":"function"},{"inputs":[{"internalType":"uint256","name":"debateId","type":"uint256"}],"name":"getDebate","outputs":[{"components":[{"internalType":"uint256","name":"debateId","type":"uint256"},{"internalType":"string","name":"topic","type":"string"},{"internalType":"string","name":"ipfsTranscriptHash","type":"string"},{"internalType":"enum DebateSession.Phase","name":"currentPhase","type":"uint8"},{"internalType":"string[]","name":"activeAgents","type":"string[]"},{"internalType":"uint256","name":"startTime","type":"uint256"},{"internalType":"uint256","name":"endTime","type":"uint256"},{"internalType":"bool","name":"consensusReached","type":"bool"},{"internalType":"uint256","name":"consensusPercentage","type":"uint256"},{"internalType":"string","name":"finalPolicyIpfsHash","type":"string"},{"internalType":"address","name":"initiator","type":"address"}],"internalType":"struct DebateSession.Debate","name":"","type":"tuple"}],"stateMutability":"view","type":"function"},{"inputs":[{"internalType":"uint256","name":"debateId","type":"uint256"}],"name":"getDebateStatements","outputs":[{"components":[{"internalType":"string","name":"agentId","type":"string"},{"internalType":"string","name":"statementHash","type":"string"},{"internalType":"uint256","name":"timestamp","type":"uint256"},{"internalType":"string","name":"ipfsContentHash","type":"string"},{"internalType":"bytes","name":"agentSignature","type":"bytes"}],"internalType":"struct DebateSession.Statement[]","name":"","type":"tuple[]"}],"stateMutability":"view","type":"function"},{"inputs":[],"name":"owner","outputs":[{"internalType":"address","name":"","type":"address"}],"stateMutability":"view","type":"function"},{"inputs":[{"internalType":"uint256","name":"debateId","type":"uint256"},{"internalType":"string","name":"agentId","type":"string"},{"internalType":"string","name":"statementHash","type":"string"},{"internalType":"string","name":"ipfsContentHash","type":"string"},{"internalType":"bytes","name":"agentSignature","type":"bytes"}],"name":"recordStatement","outputs":[],"stateMutability":"nonpayable","type":"function"},{"inputs":[{"internalType":"uint256","name":"debateId","type":"uint256"},{"internalType":"string","name":"agentId","type":"string"},{"internalType":"bool","name":"support","type":"bool"},{"internalType":"uint256","name":"confidence","type":"uint256"},{"internalType":"string","name":"reasoning","type":"string"}],"name":"recordVote","outputs":[],"stateMutability":"nonpayable","type":"function"},{"inputs":[],"name":"renounceOwnership","outputs":[],"stateMutability":"nonpayable","type":"function"},{"inputs":[{"internalType":"string","name":"topic","type":"string"},{"internalType":"string[]","name":"activeAgents","type":"string[]"}],"name":"startDebate","outputs":[{"internalType":"uint256","name":"","type":"uint256"}],"stateMutability":"nonpayable","type":"function"},{"inputs":[{"internalType":"address","name":"newOwner","type":"address"}],"name":"transferOwnership","outputs":[],"stateMutability":"nonpayable","type":"function"}],"evm":{"bytecode":{"linkReferences":{},"object":"60806040523480156200001157600080fd5b5033600073ffffffffffffffffffffffffffffffffffffffff168173ffffffffffffffffffffffffffffffffffffffff1603620000885760006040517f1e4fbdf70000000000000000000000000000000000000000000000000000000081526004016200007f9190620001a9565b60405180910390fd5b6200009981620000a060201b60201c565b50620001c6565b60008060009054906101000a900473ffffffffffffffffffffffffffffffffffffffff169050816000806101000a81548173ffffffffffffffffffffffffffffffffffffffff021916908373ffffffffffffffffffffffffffffffffffffffff1602179055508173ffffffffffffffffffffffffffffffffffffffff168173ffffffffffffffffffffffffffffffffffffffff167f8be0079c531659141344cd1fd0a4f28419497f9722a3daafe3b4186f6b6457e060405160405180910390a35050565b600073ffffffffffffffffffffffffffffffffffffffff82169050919050565b6000620001918262000164565b9050919050565b620001a38162000184565b82525050565b6000602082019050620001c0600083018462000198565b92915050565b612ff380620001d66000396000f3fe608060405234801561001057600080fd5b50600436106100ea5760003560e01c806381aaf4ce1161008c578063c7dbbb3611610066578063c7dbbb3614610256578063cd7bd61b14610272578063f2fde38b146102a5578063f53ec146146102c1576100ea565b806381aaf4ce146101ec5780638da5cb5b1461020857806398d336af14610226576100ea565b8063602554ad116100c8578063602554ad14610178578063699769a314610194578063715018a6146101b257806374005336146101bc576100ea565b80630fab4c3e146100ef578063581f3d0f1461012357806359758fcf1461013f575b600080fd5b61010960048036038101906101049190611ada565b6102f1565b60405161011a959493929190611c0e565b60405180910390f35b61013d60048036038101906101389190611dea565b610564565b005b61015960048036038101906101549190611e9d565b610664565b60405161016f9a99989796959493929190611f91565b60405180910390f35b610192600480360381019061018d9190612042565b61088a565b005b61019c6109e1565b6040516101a991906120f5565b60405180910390f35b6101ba6109e7565b005b6101d660048036038101906101d19190611e9d565b6109fb565b6040516101e39190612300565b60405180910390f35b61020660048036038101906102019190611e9d565b610cbf565b005b610210610e0f565b60405161021d9190612322565b60405180910390f35b610240600480360381019061023b9190611e9d565b610e38565b60405161024d9190612530565b60405180910390f35b610270600480360381019061026b91906125f3565b6111c9565b005b61028c60048036038101906102879190611ada565b6113bb565b60405161029c94939291906126de565b60405180910390f35b6102bf60048036038101906102ba919061275d565b611525565b005b6102db60048036038101906102d69190612870565b6115ab565b6040516102e891906120f5565b60405180910390f35b6003602052816000526040600020818154811061030d57600080fd5b90600052602060002090600502016000915091505080600001805461033190612917565b80601f016020809104026020016040519081016040528092919081815260200182805461035d90612917565b80156103aa5780601f1061037f576101008083540402835291602001916103aa565b820191906000526020600020905b81548152906001019060200180831161038d57829003601f168201915b5050505050908060010180546103bf90612917565b80601f01602080910402602001604051908101604052809291908181526020018280546103eb90612917565b80156104385780601f1061040d57610100808354040283529160200191610438565b820191906000526020600020905b81548152906001019060200180831161041b57829003601f168201915b50505050509080600201549080600301805461045390612917565b80601f016020809104026020016040519081016040528092919081815260200182805461047f90612917565b80156104cc5780601f106104a1576101008083540402835291602001916104cc565b820191906000526020600020905b8154815290600101906020018083116104af57829003601f168201915b5050505050908060040180546104e190612917565b80601f016020809104026020016040519081016040528092919081815260200182805461050d90612917565b801561055a5780601f1061052f5761010080835404028352916020019161055a565b820191906000526020600020905b81548152906001019060200180831161053d57829003601f168201915b5050505050905085565b61056c6117df565b600460008681526020019081526020016000206040518060800160405280868152602001851515815260200184815260200183815250908060018154018082558091505060019003906000526020600020906004020160009091909190915060008201518160000190816105e09190612af4565b5060208201518160010160006101000a81548160ff0219169083151502179055506040820151816002015560608201518160030190816106209190612af4565b505050847fb5918aa6428672f87627b229411118672dd5a88aec24eba7fbd7afcf5d733f618585604051610655929190612bc6565b60405180910390a25050505050565b600260205280600052604060002060009150905080600001549080600101805461068d90612917565b80601f01602080910402602001604051908101604052809291908181526020018280546106b990612917565b80156107065780601f106106db57610100808354040283529160200191610706565b820191906000526020600020905b8154815290600101906020018083116106e957829003601f168201915b50505050509080600201805461071b90612917565b80601f016020809104026020016040519081016040528092919081815260200182805461074790612917565b80156107945780601f1061076957610100808354040283529160200191610794565b820191906000526020600020905b81548152906001019060200180831161077757829003601f168201915b5050505050908060030160009054906101000a900460ff16908060050154908060060154908060070160009054906101000a900460ff16908060080154908060090180546107e190612917565b80601f016020809104026020016040519081016040528092919081815260200182805461080d90612917565b801561085a5780601f1061082f5761010080835404028352916020019161085a565b820191906000526020600020905b81548152906001019060200180831161083d57829003601f168201915b50505050509080600a0160009054906101000a900473ffffffffffffffffffffffffffffffffffffffff1690508a565b6108926117df565b60006002600087815260200190815260200160002090506007808111156108bc576108bb611eca565b5b8160030160009054906101000a900460ff1660078111156108e0576108df611eca565b5b10610920576040517f08c379a000000000000000000000000000000000000000000000000000000000815260040161091790612c42565b60405180910390fd5b60078160030160006101000a81548160ff0219169083600781111561094857610947611eca565b5b0217905550428160060181905550848160020190816109679190612af4565b50838160090190816109799190612af4565b50828160070160006101000a81548160ff021916908315150217905550818160080181905550857f7a73389fc44575a7aabee4812879a5993ea3f1802f09bfeb30da0b739961064e84866040516109d1929190612c62565b60405180910390a2505050505050565b60015481565b6109ef6117df565b6109f96000611866565b565b606060036000838152602001908152602001600020805480602002602001604051908101604052809291908181526020016000905b82821015610cb457838290600052602060002090600502016040518060a0016040529081600082018054610a6390612917565b80601f0160208091040260200160405190810160405280929190818152602001828054610a8f90612917565b8015610adc5780601f10610ab157610100808354040283529160200191610adc565b820191906000526020600020905b815481529060010190602001808311610abf57829003601f168201915b50505050508152602001600182018054610af590612917565b80601f0160208091040260200160405190810160405280929190818152602001828054610b2190612917565b8015610b6e5780601f10610b4357610100808354040283529160200191610b6e565b820191906000526020600020905b815481529060010190602001808311610b5157829003601f168201915b5050505050815260200160028201548152602001600382018054610b9190612917565b80601f0160208091040260200160405190810160405280929190818152602001828054610bbd90612917565b8015610c0a5780601f10610bdf57610100808354040283529160200191610c0a565b820191906000526020600020905b815481529060010190602001808311610bed57829003601f168201915b50505050508152602001600482018054610c2390612917565b80601f0160208091040260200160405190810160405280929190818152602001828054610c4f90612917565b8015610c9c5780601f10610c7157610100808354040283529160200191610c9c565b820191906000526020600020905b815481529060010190602001808311610c7f57829003601f168201915b50505050508152505081526020019060010190610a30565b505050509050919050565b610cc76117df565b6000600260008381526020019081526020016000209050600780811115610cf157610cf0611eca565b5b8160030160009054906101000a900460ff166007811115610d1557610d14611eca565b5b10610d55576040517f08c379a0000000000000000000000000000000000000000000000000000000008152600401610d4c90612c42565b60405180910390fd5b60018160030160009054906101000a900460ff166007811115610d7b57610d7a611eca565b5b610d859190612cc1565b6007811115610d9757610d96611eca565b5b8160030160006101000a81548160ff02191690836007811115610dbd57610dbc611eca565b5b0217905550817fa92c850bb09d5afa4a6230f4866fad10264c6fea20047156b39e3e24c5763ad48260030160009054906101000a900460ff16604051610e039190612cf5565b60405180910390a25050565b60008060009054906101000a900473ffffffffffffffffffffffffffffffffffffffff16905090565b610e40611932565b600260008381526020019081526020016000206040518061016001604052908160008201548152602001600182018054610e7990612917565b80601f0160208091040260200160405190810160405280929190818152602001828054610ea590612917565b8015610ef25780601f10610ec757610100808354040283529160200191610ef2565b820191906000526020600020905b815481529060010190602001808311610ed557829003601f168201915b50505050508152602001600282018054610f0b90612917565b80601f0160208091040260200160405190810160405280929190818152602001828054610f3790612917565b8015610f845780601f10610f5957610100808354040283529160200191610f84565b820191906000526020600020905b815481529060010190602001808311610f6757829003601f168201915b505050505081526020016003820160009054906101000a900460ff166007811115610fb257610fb1611eca565b5b6007811115610fc457610fc3611eca565b5b815260200160048201805480602002602001604051908101604052809291908181526020016000905b8282101561109957838290600052602060002001805461100c90612917565b80601f016020809104026020016040519081016040528092919081815260200182805461103890612917565b80156110855780601f1061105a57610100808354040283529160200191611085565b820191906000526020600020905b81548152906001019060200180831161106857829003601f168201915b505050505081526020019060010190610fed565b50505050815260200160058201548152602001600682015481526020016007820160009054906101000a900460ff16151515158152602001600882015481526020016009820180546110ea90612917565b80601f016020809104026020016040519081016040528092919081815260200182805461111690612917565b80156111635780601f1061113857610100808354040283529160200191611163565b820191906000526020600020905b81548152906001019060200180831161114657829003601f168201915b50505050508152602001600a820160009054906101000a900473ffffffffffffffffffffffffffffffffffffffff1673ffffffffffffffffffffffffffffffffffffffff1673ffffffffffffffffffffffffffffffffffffffff16815250509050919050565b6111d16117df565b600060026000878152602001908152602001600020600501541161122a576040517f08c379a000000000000000000000000000000000000000000000000000000000815260040161122190612d5c565b60405180910390fd5b60078081111561123d5761123c611eca565b5b6002600087815260200190815260200160002060030160009054906101000a900460ff16600781111561127357611272611eca565b5b106112b3576040517f08c379a00000000000000000000000000000000000000000000000000000000081526004016112aa90612dc8565b60405180910390fd5b600360008681526020019081526020016000206040518060a00160405280868152602001858152602001428152602001848152602001838152509080600181540180825580915050600190039060005260206000209060050201600090919091909150600082015181600001908161132b9190612af4565b5060208201518160010190816113419190612af4565b506040820151816002015560608201518160030190816113619190612af4565b5060808201518160040190816113779190612e43565b505050847f3978352220d30371f18897cbef0303fdbf201a5d5967e63a52098c6310e346a185426040516113ac929190612f15565b60405180910390a25050505050565b600460205281600052604060002081815481106113d757600080fd5b9060005260206000209060040201600091509150508060000180546113fb90612917565b80601f016020809104026020016040519081016040528092919081815260200182805461142790612917565b80156114745780601f1061144957610100808354040283529160200191611474565b820191906000526020600020905b81548152906001019060200180831161145757829003601f168201915b5050505050908060010160009054906101000a900460ff16908060020154908060030180546114a290612917565b80601f01602080910402602001604051908101604052809291908181526020018280546114ce90612917565b801561151b5780601f106114f05761010080835404028352916020019161151b565b820191906000526020600020905b8154815290600101906020018083116114fe57829003601f168201915b5050505050905084565b61152d6117df565b600073ffffffffffffffffffffffffffffffffffffffff168173ffffffffffffffffffffffffffffffffffffffff160361159f5760006040517f1e4fbdf70000000000000000000000000000000000000000000000000000000081526004016115969190612322565b60405180910390fd5b6115a881611866565b50565b6000600160008154809291906115c090612f45565b9190505550600060015490506040518061016001604052808281526020018581526020016040518060200160405280600081525081526020016000600781111561160d5761160c611eca565b5b815260200184815260200142815260200160008152602001600015158152602001600081526020016040518060200160405280600081525081526020013373ffffffffffffffffffffffffffffffffffffffff16815250600260008381526020019081526020016000206000820151816000015560208201518160010190816116969190612af4565b5060408201518160020190816116ac9190612af4565b5060608201518160030160006101000a81548160ff021916908360078111156116d8576116d7611eca565b5b021790555060808201518160040190805190602001906116f99291906119b6565b5060a0820151816005015560c0820151816006015560e08201518160070160006101000a81548160ff021916908315150217905550610100820151816008015561012082015181600901908161174f9190612af4565b5061014082015181600a0160006101000a81548173ffffffffffffffffffffffffffffffffffffffff021916908373ffffffffffffffffffffffffffffffffffffffff160217905550905050807f51be65e6e66642fdcaff78a44c1ac3eba9c711aa475cd1ae7806d2befca75c2e85336040516117cd929190612f8d565b60405180910390a28091505092915050565b6117e761192a565b73ffffffffffffffffffffffffffffffffffffffff16611805610e0f565b73ffffffffffffffffffffffffffffffffffffffff16146118645761182861192a565b6040517f118cdaa700000000000000000000000000000000000000000000000000000000815260040161185b9190612322565b60405180910390fd5b565b60008060009054906101000a900473ffffffffffffffffffffffffffffffffffffffff169050816000806101000a81548173ffffffffffffffffffffffffffffffffffffffff021916908373ffffffffffffffffffffffffffffffffffffffff1602179055508173ffffffffffffffffffffffffffffffffffffffff168173ffffffffffffffffffffffffffffffffffffffff167f8be0079c531659141344cd1fd0a4f28419497f9722a3daafe3b4186f6b6457e060405160405180910390a35050565b600033905090565b6040518061016001604052806000815260200160608152602001606081526020016000600781111561196757611966611eca565b5b81526020016060815260200160008152602001600081526020016000151581526020016000815260200160608152602001600073ffffffffffffffffffffffffffffffffffffffff1681525090565b8280548282559060005260206000209081019282156119fe579160200282015b828111156119fd5782518290816119ed9190612af4565b50916020019190600101906119d6565b5b509050611a0b9190611a0f565b5090565b5b80821115611a2f5760008181611a269190611a33565b50600101611a10565b5090565b508054611a3f90612917565b6000825580601f10611a515750611a70565b601f016020900490600052602060002090810190611a6f9190611a73565b5b50565b5b80821115611a8c576000816000905550600101611a74565b5090565b6000604051905090565b600080fd5b600080fd5b6000819050919050565b611ab781611aa4565b8114611ac257600080fd5b50565b600081359050611ad481611aae565b92915050565b60008060408385031215611af157611af0611a9a565b5b6000611aff85828601611ac5565b9250506020611b1085828601611ac5565b9150509250929050565b600081519050919050565b600082825260208201905092915050565b60005b83811015611b54578082015181840152602081019050611b39565b60008484015250505050565b6000601f19601f8301169050919050565b6000611b7c82611b1a565b611b868185611b25565b9350611b96818560208601611b36565b611b9f81611b60565b840191505092915050565b611bb381611aa4565b82525050565b600081519050919050565b600082825260208201905092915050565b6000611be082611bb9565b611bea8185611bc4565b9350611bfa818560208601611b36565b611c0381611b60565b840191505092915050565b600060a0820190508181036000830152611c288188611b71565b90508181036020830152611c3c8187611b71565b9050611c4b6040830186611baa565b8181036060830152611c5d8185611b71565b90508181036080830152611c718184611bd5565b90509695505050505050565b600080fd5b600080fd5b7f4e487b7100000000000000000000000000000000000000000000000000000000600052604160045260246000fd5b611cbf82611b60565b810181811067ffffffffffffffff82111715611cde57611cdd611c87565b5b80604052505050565b6000611cf1611a90565b9050611cfd8282611cb6565b919050565b600067ffffffffffffffff821115611d1d57611d1c611c87565b5b611d2682611b60565b9050602081019050919050565b82818337600083830152505050565b6000611d55611d5084611d02565b611ce7565b905082815260208101848484011115611d7157611d70611c82565b5b611d7c848285611d33565b509392505050565b600082601f830112611d9957611d98611c7d565b5b8135611da9848260208601611d42565b91505092915050565b60008115159050919050565b611dc781611db2565b8114611dd257600080fd5b50565b600081359050611de481611dbe565b92915050565b600080600080600060a08688031215611e0657611e05611a9a565b5b6000611e1488828901611ac5565b955050602086013567ffffffffffffffff811115611e3557611e34611a9f565b5b611e4188828901611d84565b9450506040611e5288828901611dd5565b9350506060611e6388828901611ac5565b925050608086013567ffffffffffffffff811115611e8457611e83611a9f565b5b611e9088828901611d84565b9150509295509295909350565b600060208284031215611eb357611eb2611a9a565b5b6000611ec184828501611ac5565b91505092915050565b7f4e487b7100000000000000000000000000000000000000000000000000000000600052602160045260246000fd5b60088110611f0a57611f09611eca565b5b50565b6000819050611f1b82611ef9565b919050565b6000611f2b82611f0d565b9050919050565b611f3b81611f20565b82525050565b611f4a81611db2565b82525050565b600073ffffffffffffffffffffffffffffffffffffffff82169050919050565b6000611f7b82611f50565b9050919050565b611f8b81611f70565b82525050565b600061014082019050611fa7600083018d611baa565b8181036020830152611fb9818c611b71565b90508181036040830152611fcd818b611b71565b9050611fdc606083018a611f32565b611fe96080830189611baa565b611ff660a0830188611baa565b61200360c0830187611f41565b61201060e0830186611baa565b8181036101008301526120238185611b71565b9050612033610120830184611f82565b9b9a5050505050505050505050565b600080600080600060a0868803121561205e5761205d611a9a565b5b600061206c88828901611ac5565b955050602086013567ffffffffffffffff81111561208d5761208c611a9f565b5b61209988828901611d84565b945050604086013567ffffffffffffffff8111156120ba576120b9611a9f565b5b6120c688828901611d84565b93505060606120d788828901611dd5565b92505060806120e888828901611ac5565b9150509295509295909350565b600060208201905061210a6000830184611baa565b92915050565b600081519050919050565b600082825260208201905092915050565b6000819050602082019050919050565b600082825260208201905092915050565b600061215882611b1a565b612162818561213c565b9350612172818560208601611b36565b61217b81611b60565b840191505092915050565b61218f81611aa4565b82525050565b600082825260208201905092915050565b60006121b182611bb9565b6121bb8185612195565b93506121cb818560208601611b36565b6121d481611b60565b840191505092915050565b600060a08301600083015184820360008601526121fc828261214d565b91505060208301518482036020860152612216828261214d565b915050604083015161222b6040860182612186565b5060608301518482036060860152612243828261214d565b9150506080830151848203608086015261225d82826121a6565b9150508091505092915050565b600061227683836121df565b905092915050565b6000602082019050919050565b600061229682612110565b6122a0818561211b565b9350836020820285016122b28561212c565b8060005b858110156122ee57848403895281516122cf858261226a565b94506122da8361227e565b925060208a019950506001810190506122b6565b50829750879550505050505092915050565b6000602082019050818103600083015261231a818461228b565b905092915050565b60006020820190506123376000830184611f82565b92915050565b61234681611f20565b82525050565b600081519050919050565b600082825260208201905092915050565b6000819050602082019050919050565b6000612384838361214d565b905092915050565b6000602082019050919050565b60006123a48261234c565b6123ae8185612357565b9350836020820285016123c085612368565b8060005b858110156123fc57848403895281516123dd8582612378565b94506123e88361238c565b925060208a019950506001810190506123c4565b50829750879550505050505092915050565b61241781611db2565b82525050565b61242681611f70565b82525050565b6000610160830160008301516124456000860182612186565b506020830151848203602086015261245d828261214d565b91505060408301518482036040860152612477828261214d565b915050606083015161248c606086018261233d565b50608083015184820360808601526124a48282612399565b91505060a08301516124b960a0860182612186565b5060c08301516124cc60c0860182612186565b5060e08301516124df60e086018261240e565b506101008301516124f4610100860182612186565b5061012083015184820361012086015261250e828261214d565b91505061014083015161252561014086018261241d565b508091505092915050565b6000602082019050818103600083015261254a818461242c565b905092915050565b600067ffffffffffffffff82111561256d5761256c611c87565b5b61257682611b60565b9050602081019050919050565b600061259661259184612552565b611ce7565b9050828152602081018484840111156125b2576125b1611c82565b5b6125bd848285611d33565b509392505050565b600082601f8301126125da576125d9611c7d565b5b81356125ea848260208601612583565b91505092915050565b600080600080600060a0868803121561260f5761260e611a9a565b5b600061261d88828901611ac5565b955050602086013567ffffffffffffffff81111561263e5761263d611a9f565b5b61264a88828901611d84565b945050604086013567ffffffffffffffff81111561266b5761266a611a9f565b5b61267788828901611d84565b935050606086013567ffffffffffffffff81111561269857612697611a9f565b5b6126a488828901611d84565b925050608086013567ffffffffffffffff8111156126c5576126c4611a9f565b5b6126d1888289016125c5565b9150509295509295909350565b600060808201905081810360008301526126f88187611b71565b90506127076020830186611f41565b6127146040830185611baa565b81810360608301526127268184611b71565b905095945050505050565b61273a81611f70565b811461274557600080fd5b50565b60008135905061275781612731565b92915050565b60006020828403121561277357612772611a9a565b5b600061278184828501612748565b91505092915050565b600067ffffffffffffffff8211156127a5576127a4611c87565b5b602082029050602081019050919050565b600080fd5b60006127ce6127c98461278a565b611ce7565b905080838252602082019050602084028301858111156127f1576127f06127b6565b5b835b8181101561283857803567ffffffffffffffff81111561281657612815611c7d565b5b8086016128238982611d84565b855260208501945050506020810190506127f3565b5050509392505050565b600082601f83011261285757612856611c7d565b5b81356128678482602086016127bb565b91505092915050565b6000806040838503121561288757612886611a9a565b5b600083013567ffffffffffffffff8111156128a5576128a4611a9f565b5b6128b185828601611d84565b925050602083013567ffffffffffffffff8111156128d2576128d1611a9f565b5b6128de85828601612842565b9150509250929050565b7f4e487b7100000000000000000000000000000000000000000000000000000000600052602260045260246000fd5b6000600282049050600182168061292f57607f821691505b602082108103612942576129416128e8565b5b50919050565b60008190508160005260206000209050919050565b60006020601f8301049050919050565b600082821b905092915050565b6000600883026129aa7fffffffffffffffffffffffffffffffffffffffffffffffffffffffffffffffff8261296d565b6129b4868361296d565b95508019841693508086168417925050509392505050565b6000819050919050565b60006129f16129ec6129e784611aa4565b6129cc565b611aa4565b9050919050565b6000819050919050565b612a0b836129d6565b612a1f612a17826129f8565b84845461297a565b825550505050565b600090565b612a34612a27565b612a3f818484612a02565b505050565b5b81811015612a6357612a58600082612a2c565b600181019050612a45565b5050565b601f821115612aa857612a7981612948565b612a828461295d565b81016020851015612a91578190505b612aa5612a9d8561295d565b830182612a44565b50505b505050565b600082821c905092915050565b6000612acb60001984600802612aad565b1980831691505092915050565b6000612ae48383612aba565b9150826002028217905092915050565b612afd82611b1a565b67ffffffffffffffff811115612b1657612b15611c87565b5b612b208254612917565b612b2b828285612a67565b600060209050601f831160018114612b5e5760008415612b4c578287015190505b612b568582612ad8565b865550612bbe565b601f198416612b6c86612948565b60005b82811015612b9457848901518255600182019150602085019450602081019050612b6f565b86831015612bb15784890151612bad601f891682612aba565b8355505b6001600288020188555050505b505050505050565b60006040820190508181036000830152612be08185611b71565b9050612bef6020830184611f41565b9392505050565b7f416c726561647920636f6d706c65746564000000000000000000000000000000600082015250565b6000612c2c601183611b25565b9150612c3782612bf6565b602082019050919050565b60006020820190508181036000830152612c5b81612c1f565b9050919050565b6000604082019050612c776000830185611f41565b8181036020830152612c898184611b71565b90509392505050565b7f4e487b7100000000000000000000000000000000000000000000000000000000600052601160045260246000fd5b6000612ccc82611aa4565b9150612cd783611aa4565b9250828201905080821115612cef57612cee612c92565b5b92915050565b6000602082019050612d0a6000830184611f32565b92915050565b7f446562617465206e6f7420666f756e6400000000000000000000000000000000600082015250565b6000612d46601083611b25565b9150612d5182612d10565b602082019050919050565b60006020820190508181036000830152612d7581612d39565b9050919050565b7f44656261746520656e6465640000000000000000000000000000000000000000600082015250565b6000612db2600c83611b25565b9150612dbd82612d7c565b602082019050919050565b60006020820190508181036000830152612de181612da5565b9050919050565b60008190508160005260206000209050919050565b601f821115612e3e57612e0f81612de8565b612e188461295d565b81016020851015612e27578190505b612e3b612e338561295d565b830182612a44565b50505b505050565b612e4c82611bb9565b67ffffffffffffffff811115612e6557612e64611c87565b5b612e6f8254612917565b612e7a828285612dfd565b600060209050601f831160018114612ead5760008415612e9b578287015190505b612ea58582612ad8565b865550612f0d565b601f198416612ebb86612de8565b60005b82811015612ee357848901518255600182019150602085019450602081019050612ebe565b86831015612f005784890151612efc601f891682612aba565b8355505b6001600288020188555050505b505050505050565b60006040820190508181036000830152612f2f8185611b71565b9050612f3e6020830184611baa565b9392505050565b6000612f5082611aa4565b91507fffffffffffffffffffffffffffffffffffffffffffffffffffffffffffffffff8203612f8257612f81612c92565b5b600182019050919050565b60006040820190508181036000830152612fa78185611b71565b9050612fb66020830184611f82565b939250505056fea26469706673582212203cf2f0ee28c32833fc1b6e52446d0c2398933037f50b054236a15c1744b9b1a764736f6c63430008140033","opcodes":"PUSH1 0x80 PUSH1 0x40 MSTORE CALLVALUE DUP1 ISZERO PUSH3 0x11 JUMPI PUSH1 0x0 DUP1 REVERT JUMPDEST POP CALLER PUSH1 0x0 PUSH20 0xFFFFFFFFFFFFFFFFFFFFFFFFFFFFFFFFFFFFFFFF AND DUP2 PUSH20 0xFFFFFFFFFFFFFFFFFFFFFFFFFFFFFFFFFFFFFFFF AND SUB PUSH3 0x88 JUMPI PUSH1 0x0 PUSH1 0x40 MLOAD PUSH32 0x1E4FBDF700000000000000000000000000000000000000000000000000000000 DUP2 MSTORE PUSH1 0x4 ADD PUSH3 0x7F SWAP2 SWAP1 PUSH3 0x1A9 JUMP JUMPDEST PUSH1 0x40 MLOAD DUP1 SWAP2 SUB SWAP1 REVERT JUMPDEST PUSH3 0x99 DUP2 PUSH3 0xA0 PUSH1 0x20 SHL PUSH1 0x20 SHR JUMP JUMPDEST POP PUSH3 0x1C6 JUMP JUMPDEST PUSH1 0x0 DUP1 PUSH1 0x0 SWAP1 SLOAD SWAP1 PUSH2 0x100 EXP SWAP1 DIV PUSH20 0xFFFFFFFFFFFFFFFFFFFFFFFFFFFFFFFFFFFFFFFF AND SWAP1 POP DUP2 PUSH1 0x0 DUP1 PUSH2 0x100 EXP DUP2 SLOAD DUP2 PUSH20 0xFFFFFFFFFFFFFFFFFFFFFFFFFFFFFFFFFFFFFFFF MUL NOT AND SWAP1 DUP4 PUSH20 0xFFFFFFFFFFFFFFFFFFFFFFFFFFFFFFFFFFFFFFFF AND MUL OR SWAP1 SSTORE POP DUP2 PUSH20 0xFFFFFFFFFFFFFFFFFFFFFFFFFFFFFFFFFFFFFFFF AND DUP2 PUSH20 0xFFFFFFFFFFFFFFFFFFFFFFFFFFFFFFFFFFFFFFFF AND PUSH32 0x8BE0079C531659141344CD1FD0A4F28419497F9722A3DAAFE3B4186F6B6457E0 PUSH1 0x40 MLOAD PUSH1 0x40 MLOAD DUP1 SWAP2 SUB SWAP1 LOG3 POP POP JUMP JUMPDEST PUSH1 0x0 PUSH20 0xFFFFFFFFFFFFFFFFFFFFFFFFFFFFFFFFFFFFFFFF DUP3 AND SWAP1 POP SWAP2 SWAP1 POP JUMP JUMPDEST PUSH1 0x0 PUSH3 0x191 DUP3 PUSH3 0x164 JUMP JUMPDEST SWAP1 POP SWAP2 SWAP1 POP JUMP JUMPDEST PUSH3 0x1A3 DUP2 PUSH3 0x184 JUMP JUMPDEST DUP3 MSTORE POP POP JUMP JUMPDEST PUSH1 0x0 PUSH1 0x20 DUP3 ADD SWAP1 POP PUSH3 0x1C0 PUSH1 0x0 DUP4 ADD DUP5 PUSH3 0x198 JUMP JUMPDEST SWAP3 SWAP2 POP POP JUMP JUMPDEST PUSH2 0x2FF3 DUP1 PUSH3 0x1D6 PUSH1 0x0 CODECOPY PUSH1 0x0 RETURN INVALID PUSH1 0x80 PUSH1 0x40 MSTORE CALLVALUE DUP1 ISZERO PUSH2 0x10 JUMPI PUSH1 0x0 DUP1 REVERT JUMPDEST POP PUSH1 0x4 CALLDATASIZE LT PUSH2 0xEA JUMPI PUSH1 0x0 CALLDATALOAD PUSH1 0xE0 SHR DUP1 PUSH4 0x81AAF4CE GT PUSH2 0x8C JUMPI DUP1 PUSH4 0xC7DBBB36 GT PUSH2 0x66 JUMPI DUP1 PUSH4 0xC7DBBB36 EQ PUSH2 0x256 JUMPI DUP1 PUSH4 0xCD7BD61B EQ PUSH2 0x272 JUMPI DUP1 PUSH4 0xF2FDE38B EQ PUSH2 0x2A5 JUMPI DUP1 PUSH4 0xF53EC146 EQ PUSH2 0x2C1 JUMPI PUSH2 0xEA JUMP JUMPDEST DUP1 PUSH4 0x81AAF4CE EQ PUSH2 0x1EC JUMPI DUP1 PUSH4 0x8DA5CB5B EQ PUSH2 0x208 JUMPI DUP1 PUSH4 0x98D336AF EQ PUSH2 0x226 JUMPI PUSH2 0xEA JUMP JUMPDEST DUP1 PUSH4 0x602554AD GT PUSH2 0xC8 JUMPI DUP1 PUSH4 0x602554AD EQ PUSH2 0x178 JUMPI DUP1 PUSH4 0x699769A3 EQ PUSH2 0x194 JUMPI DUP1 PUSH4 0x715018A6 EQ PUSH2 0x1B2 JUMPI DUP1 PUSH4 0x74005336 EQ PUSH2 0x1BC JUMPI PUSH2 0xEA JUMP JUMPDEST DUP1 PUSH4 0xFAB4C3E EQ PUSH2 0xEF JUMPI DUP1 PUSH4 0x581F3D0F EQ PUSH2 0x123 JUMPI DUP1 PUSH4 0x59758FCF EQ PUSH2 0x13F JUMPI JUMPDEST PUSH1 0x0 DUP1 REVERT JUMPDEST PUSH2 0x109 PUSH1 0x4 DUP1 CALLDATASIZE SUB DUP2 ADD SWAP1 PUSH2 0x104 SWAP2 SWAP1 PUSH2 0x1ADA JUMP JUMPDEST PUSH2 0x2F1 JUMP JUMPDEST PUSH1 0x40 MLOAD PUSH2 0x11A SWAP6 SWAP5 SWAP4 SWAP3 SWAP2 SWAP1 PUSH2 0x1C0E JUMP JUMPDEST PUSH1 0x40 MLOAD DUP1 SWAP2 SUB SWAP1 RETURN JUMPDEST PUSH2 0x13D PUSH1 0x4 DUP1 CALLDATASIZE SUB DUP2 ADD SWAP1 PUSH2 0x138 SWAP2 SWAP1 PUSH2 0x1DEA JUMP JUMPDEST PUSH2 0x564 JUMP JUMPDEST STOP JUMPDEST PUSH2 0x159 PUSH1 0x4 DUP1 CALLDATASIZE SUB DUP2 ADD SWAP1 PUSH2 0x154 SWAP2 SWAP1 PUSH2 0x1E9D JUMP JUMPDEST PUSH2 0x664 JUMP JUMPDEST PUSH1 0x40 MLOAD PUSH2 0x16F SWAP11 SWAP10 SWAP9 SWAP8 SWAP7 SWAP6 SWAP5 SWAP4 SWAP3 SWAP2 SWAP1 PUSH2 0x1F91 JUMP JUMPDEST PUSH1 0x40 MLOAD DUP1 SWAP2 SUB SWAP1 RETURN JUMPDEST PUSH2 0x192 PUSH1 0x4 DUP1 CALLDATASIZE SUB DUP2 ADD SWAP1 PUSH2 0x18D SWAP2 SWAP1 PUSH2 0x2042 JUMP JUMPDEST PUSH2 0x88A JUMP JUMPDEST STOP JUMPDEST PUSH2 0x19C PUSH2 0x9E1 JUMP JUMPDEST PUSH1 0x40 MLOAD PUSH2 0x1A9 SWAP2 SWAP1 PUSH2 0x20F5 JUMP JUMPDEST PUSH1 0x40 MLOAD DUP1 SWAP2 SUB SWAP1 RETURN JUMPDEST PUSH2 0x1BA PUSH2 0x9E7 JUMP JUMPDEST STOP JUMPDEST PUSH2 0x1D6 PUSH1 0x4 DUP1 CALLDATASIZE SUB DUP2 ADD SWAP1 PUSH2 0x1D1 SWAP2 SWAP1 PUSH2 0x1E9D JUMP JUMPDEST PUSH2 0x9FB JUMP JUMPDEST PUSH1 0x40 MLOAD PUSH2 0x1E3 SWAP2 SWAP1 PUSH2 0x2300 JUMP JUMPDEST PUSH1 0x40 MLOAD DUP1 SWAP2 SUB SWAP1 RETURN JUMPDEST PUSH2 0x206 PUSH1 0x4 DUP1 CALLDATASIZE SUB DUP2 ADD SWAP1 PUSH2 0x201 SWAP2 SWAP1 PUSH2 0x1E9D JUMP JUMPDEST PUSH2 0xCBF JUMP JUMPDEST STOP JUMPDEST PUSH2 0x210 PUSH2 0xE0F JUMP JUMPDEST PUSH1 0x40 MLOAD PUSH2 0x21D SWAP2 SWAP1 PUSH2 0x2322 JUMP JUMPDEST PUSH1 0x40 MLOAD DUP1 SWAP2 SUB SWAP1 RETURN JUMPDEST PUSH2 0x240 PUSH1 0x4 DUP1 CALLDATASIZE SUB DUP2 ADD SWAP1 PUSH2 0x23B SWAP2 SWAP1 PUSH2 0x1E9D JUMP JUMPDEST PUSH2 0xE38 JUMP JUMPDEST PUSH1 0x40 MLOAD PUSH2 0x24D SWAP2 SWAP1 PUSH2 0x2530 JUMP JUMPDEST PUSH1 0x40 MLOAD DUP1 SWAP2 SUB SWAP1 RETURN JUMPDEST PUSH2 0x270 PUSH1 0x4 DUP1 CALLDATASIZE SUB DUP2 ADD SWAP1 PUSH2 0x26B SWAP2 SWAP1 PUSH2 0x25F3 JUMP JUMPDEST PUSH2 0x11C9 JUMP JUMPDEST STOP JUMPDEST PUSH2 0x28C PUSH1 0x4 DUP1 CALLDATASIZE SUB DUP2 ADD SWAP1 PUSH2 0x287 SWAP2 SWAP1 PUSH2 0x1ADA JUMP JUMPDEST PUSH2 0x13BB JUMP JUMPDEST PUSH1 0x40 MLOAD PUSH2 0x29C SWAP5 SWAP4 SWAP3 SWAP2 SWAP1 PUSH2 0x26DE JUMP JUMPDEST PUSH1 0x40 MLOAD DUP1 SWAP2 SUB SWAP1 RETURN JUMPDEST PUSH2 0x2BF PUSH1 0x4 DUP1 CALLDATASIZE SUB DUP2 ADD SWAP1 PUSH2 0x2BA SWAP2 SWAP1 PUSH2 0x275D JUMP JUMPDEST PUSH2 0x1525 JUMP JUMPDEST STOP JUMPDEST PUSH2 0x2DB PUSH1 0x4 DUP1 CALLDATASIZE SUB DUP2 ADD SWAP1 PUSH2 0x2D6 SWAP2 SWAP1 PUSH2 0x2870 JUMP JUMPDEST PUSH2 0x15AB JUMP JUMPDEST PUSH1 0x40 MLOAD PUSH2 0x2E8 SWAP2 SWAP1 PUSH2 0x20F5 JUMP JUMPDEST PUSH1 0x40 MLOAD DUP1 SWAP2 SUB SWAP1 RETURN JUMPDEST PUSH1 0x3 PUSH1 0x20 MSTORE DUP2 PUSH1 0x0 MSTORE PUSH1 0x40 PUSH1 0x0 KECCAK256 DUP2 DUP2 SLOAD DUP2 LT PUSH2 0x30D JUMPI PUSH1 0x0 DUP1 REVERT JUMPDEST SWAP1 PUSH1 0x0 MSTORE PUSH1 0x20 PUSH1 0x0 KECCAK256 SWAP1 PUSH1 0x5 MUL ADD PUSH1 0x0 SWAP2 POP SWAP2 POP POP DUP1 PUSH1 0x0 ADD DUP1 SLOAD PUSH2 0x331 SWAP1 PUSH2 0x2917 JUMP JUMPDEST DUP1 PUSH1 0x1F ADD PUSH1 0x20 DUP1 SWAP2 DIV MUL PUSH1 0x20 ADD PUSH1 0x40 MLOAD SWAP1 DUP2 ADD PUSH1 0x40 MSTORE DUP1 SWAP3 SWAP2 SWAP1 DUP2 DUP2 MSTORE PUSH1 0x20 ADD DUP3 DUP1 SLOAD PUSH2 0x35D SWAP1 PUSH2 0x2917 JUMP JUMPDEST DUP1 ISZERO PUSH2 0x3AA JUMPI DUP1 PUSH1 0x1F LT PUSH2 0x37F JUMPI PUSH2 0x100 DUP1 DUP4 SLOAD DIV MUL DUP4 MSTORE SWAP2 PUSH1 0x20 ADD SWAP2 PUSH2 0x3AA JUMP JUMPDEST DUP3 ADD SWAP2 SWAP1 PUSH1 0x0 MSTORE PUSH1 0x20 PUSH1 0x0 KECCAK256 SWAP1 JUMPDEST DUP2 SLOAD DUP2 MSTORE SWAP1 PUSH1 0x1 ADD SWAP1 PUSH1 0x20 ADD DUP1 DUP4 GT PUSH2 0x38D JUMPI DUP3 SWAP1 SUB PUSH1 0x1F AND DUP3 ADD SWAP2 JUMPDEST POP POP POP POP POP SWAP1 DUP1 PUSH1 0x1 ADD DUP1 SLOAD PUSH2 0x3BF SWAP1 PUSH2 0x2917 JUMP JUMPDEST DUP1 PUSH1 0x1F ADD PUSH1 0x20 DUP1 SWAP2 DIV MUL PUSH1 0x20 ADD PUSH1 0x40 MLOAD SWAP1 DUP2 ADD PUSH1 0x40 MSTORE DUP1 SWAP3 SWAP2 SWAP1 DUP2 DUP2 MSTORE PUSH1 0x20 ADD DUP3 DUP1 SLOAD PUSH2 0x3EB SWAP1 PUSH2 0x2917 JUMP JUMPDEST DUP1 ISZERO PUSH2 0x438 JUMPI DUP1 PUSH1 0x1F LT PUSH2 0x40D JUMPI PUSH2 0x100 DUP1 DUP4 SLOAD DIV MUL DUP4 MSTORE SWAP2 PUSH1 0x20 ADD SWAP2 PUSH2 0x438 JUMP JUMPDEST DUP3 ADD SWAP2 SWAP1 PUSH1 0x0 MSTORE PUSH1 0x20 PUSH1 0x0 KECCAK256 SWAP1 JUMPDEST DUP2 SLOAD DUP2 MSTORE SWAP1 PUSH1 0x1 ADD SWAP1 PUSH1 0x20 ADD DUP1 DUP4 GT PUSH2 0x41B JUMPI DUP3 SWAP1 SUB PUSH1 0x1F AND DUP3 ADD SWAP2 JUMPDEST POP POP POP POP POP SWAP1 DUP1 PUSH1 0x2 ADD SLOAD SWAP1 DUP1 PUSH1 0x3 ADD DUP1 SLOAD PUSH2 0x453 SWAP1 PUSH2 0x2917 JUMP JUMPDEST DUP1 PUSH1 0x1F ADD PUSH1 0x20 DUP1 SWAP2 DIV MUL PUSH1 0x20 ADD PUSH1 0x40 MLOAD SWAP1 DUP2 ADD PUSH1 0x40 MSTORE DUP1 SWAP3 SWAP2 SWAP1 DUP2 DUP2 MSTORE PUSH1 0x20 ADD DUP3 DUP1 SLOAD PUSH2 0x47F SWAP1 PUSH2 0x2917 JUMP JUMPDEST DUP1 ISZERO PUSH2 0x4CC JUMPI DUP1 PUSH1 0x1F LT PUSH2 0x4A1 JUMPI PUSH2 0x100 DUP1 DUP4 SLOAD DIV MUL DUP4 MSTORE SWAP2 PUSH1 0x20 ADD SWAP2 PUSH2 0x4CC JUMP JUMPDEST DUP3 ADD SWAP2 SWAP1 PUSH1 0x0 MSTORE PUSH1 0x20 PUSH1 0x0 KECCAK256 SWAP1 JUMPDEST DUP2 SLOAD DUP2 MSTORE SWAP1 PUSH1 0x1 ADD SWAP1 PUSH1 0x20 ADD DUP1 DUP4 GT PUSH2 0x4AF JUMPI DUP3 SWAP1 SUB PUSH1 0x1F AND DUP3 ADD SWAP2 JUMPDEST POP POP POP POP POP SWAP1 DUP1 PUSH1 0x4 ADD DUP1 SLOAD PUSH2 0x4E1 SWAP1 PUSH2 0x2917 JUMP JUMPDEST DUP1 PUSH1 0x1F ADD PUSH1 0x20 DUP1 SWAP2 DIV MUL PUSH1 0x20 ADD PUSH1 0x40 MLOAD SWAP1 DUP2 ADD PUSH1 0x40 MSTORE DUP1 SWAP3 SWAP2 SWAP1 DUP2 DUP2 MSTORE PUSH1 0x20 ADD DUP3 DUP1 SLOAD PUSH2 0x50D SWAP1 PUSH2 0x2917 JUMP JUMPDEST DUP1 ISZERO PUSH2 0x55A JUMPI DUP1 PUSH1 0x1F LT PUSH2 0x52F JUMPI PUSH2 0x100 DUP1 DUP4 SLOAD DIV MUL DUP4 MSTORE SWAP2 PUSH1 0x20 ADD SWAP2 PUSH2 0x55A JUMP JUMPDEST DUP3 ADD SWAP2 SWAP1 PUSH1 0x0 MSTORE PUSH1 0x20 PUSH1 0x0 KECCAK256 SWAP1 JUMPDEST DUP2 SLOAD DUP2 MSTORE SWAP1 PUSH1 0x1 ADD SWAP1 PUSH1 0x20 ADD DUP1 DUP4 GT PUSH2 0x53D JUMPI DUP3 SWAP1 SUB PUSH1 0x1F AND DUP3 ADD SWAP2 JUMPDEST POP POP POP POP POP SWAP1 POP DUP6 JUMP JUMPDEST PUSH2 0x56C PUSH2 0x17DF JUMP JUMPDEST PUSH1 0x4 PUSH1 0x0 DUP7 DUP2 MSTORE PUSH1 0x20 ADD SWAP1 DUP2 MSTORE PUSH1 0x20 ADD PUSH1 0x0 KECCAK256 PUSH1 0x40 MLOAD DUP1 PUSH1 0x80 ADD PUSH1 0x40 MSTORE DUP1 DUP7 DUP2 MSTORE PUSH1 0x20 ADD DUP6 ISZERO ISZERO DUP2 MSTORE PUSH1 0x20 ADD DUP5 DUP2 MSTORE PUSH1 0x20 ADD DUP4 DUP2 MSTORE POP SWAP1 DUP1 PUSH1 0x1 DUP2 SLOAD ADD DUP1 DUP3 SSTORE DUP1 SWAP2 POP POP PUSH1 0x1 SWAP1 SUB SWAP1 PUSH1 0x0 MSTORE PUSH1 0x20 PUSH1 0x0 KECCAK256 SWAP1 PUSH1 0x4 MUL ADD PUSH1 0x0 SWAP1 SWAP2 SWAP1 SWAP2 SWAP1 SWAP2 POP PUSH1 0x0 DUP3 ADD MLOAD DUP2 PUSH1 0x0 ADD SWAP1 DUP2 PUSH2 0x5E0 SWAP2 SWAP1 PUSH2 0x2AF4 JUMP JUMPDEST POP PUSH1 0x20 DUP3 ADD MLOAD DUP2 PUSH1 0x1 ADD PUSH1 0x0 PUSH2 0x100 EXP DUP2 SLOAD DUP2 PUSH1 0xFF MUL NOT AND SWAP1 DUP4 ISZERO ISZERO MUL OR SWAP1 SSTORE POP PUSH1 0x40 DUP3 ADD MLOAD DUP2 PUSH1 0x2 ADD SSTORE PUSH1 0x60 DUP3 ADD MLOAD DUP2 PUSH1 0x3 ADD SWAP1 DUP2 PUSH2 0x620 SWAP2 SWAP1 PUSH2 0x2AF4 JUMP JUMPDEST POP POP POP DUP5 PUSH32 0xB5918AA6428672F87627B229411118672DD5A88AEC24EBA7FBD7AFCF5D733F61 DUP6 DUP6 PUSH1 0x40 MLOAD PUSH2 0x655 SWAP3 SWAP2 SWAP1 PUSH2 0x2BC6 JUMP JUMPDEST PUSH1 0x40 MLOAD DUP1 SWAP2 SUB SWAP1 LOG2 POP POP POP POP POP JUMP JUMPDEST PUSH1 0x2 PUSH1 0x20 MSTORE DUP1 PUSH1 0x0 MSTORE PUSH1 0x40 PUSH1 0x0 KECCAK256 PUSH1 0x0 SWAP2 POP SWAP1 POP DUP1 PUSH1 0x0 ADD SLOAD SWAP1 DUP1 PUSH1 0x1 ADD DUP1 SLOAD PUSH2 0x68D SWAP1 PUSH2 0x2917 JUMP JUMPDEST DUP1 PUSH1 0x1F ADD PUSH1 0x20 DUP1 SWAP2 DIV MUL PUSH1 0x20 ADD PUSH1 0x40 MLOAD SWAP1 DUP2 ADD PUSH1 0x40 MSTORE DUP1 SWAP3 SWAP2 SWAP1 DUP2 DUP2 MSTORE PUSH1 0x20 ADD DUP3 DUP1 SLOAD PUSH2 0x6B9 SWAP1 PUSH2 0x2917 JUMP JUMPDEST DUP1 ISZERO PUSH2 0x706 JUMPI DUP1 PUSH1 0x1F LT PUSH2 0x6DB JUMPI PUSH2 0x100 DUP1 DUP4 SLOAD DIV MUL DUP4 MSTORE SWAP2 PUSH1 0x20 ADD SWAP2 PUSH2 0x706 JUMP JUMPDEST DUP3 ADD SWAP2 SWAP1 PUSH1 0x0 MSTORE PUSH1 0x20 PUSH1 0x0 KECCAK256 SWAP1 JUMPDEST DUP2 SLOAD DUP2 MSTORE SWAP1 PUSH1 0x1 ADD SWAP1 PUSH1 0x20 ADD DUP1 DUP4 GT PUSH2 0x6E9 JUMPI DUP3 SWAP1 SUB PUSH1 0x1F AND DUP3 ADD SWAP2 JUMPDEST POP POP POP POP POP SWAP1 DUP1 PUSH1 0x2 ADD DUP1 SLOAD PUSH2 0x71B SWAP1 PUSH2 0x2917 JUMP JUMPDEST DUP1 PUSH1 0x1F ADD PUSH1 0x20 DUP1 SWAP2 DIV MUL PUSH1 0x20 ADD PUSH1 0x40 MLOAD SWAP1 DUP2 ADD PUSH1 0x40 MSTORE DUP1 SWAP3 SWAP2 SWAP1 DUP2 DUP2 MSTORE PUSH1 0x20 ADD DUP3 DUP1 SLOAD PUSH2 0x747 SWAP1 PUSH2 0x2917 JUMP JUMPDEST DUP1 ISZERO PUSH2 0x794 JUMPI DUP1 PUSH1 0x1F LT PUSH2 0x769 JUMPI PUSH2 0x100 DUP1 DUP4 SLOAD DIV MUL DUP4 MSTORE SWAP2 PUSH1 0x20 ADD SWAP2 PUSH2 0x794 JUMP JUMPDEST DUP3 ADD SWAP2 SWAP1 PUSH1 0x0 MSTORE PUSH1 0x20 PUSH1 0x0 KECCAK256 SWAP1 JUMPDEST DUP2 SLOAD DUP2 MSTORE SWAP1 PUSH1 0x1 ADD SWAP1 PUSH1 0x20 ADD DUP1 DUP4 GT PUSH2 0x777 JUMPI DUP3 SWAP1 SUB PUSH1 0x1F AND DUP3 ADD SWAP2 JUMPDEST POP POP POP POP POP SWAP1 DUP1 PUSH1 0x3 ADD PUSH1 0x0 SWAP1 SLOAD SWAP1 PUSH2 0x100 EXP SWAP1 DIV PUSH1 0xFF AND SWAP1 DUP1 PUSH1 0x5 ADD SLOAD SWAP1 DUP1 PUSH1 0x6 ADD SLOAD SWAP1 DUP1 PUSH1 0x7 ADD PUSH1 0x0 SWAP1 SLOAD SWAP1 PUSH2 0x100 EXP SWAP1 DIV PUSH1 0xFF AND SWAP1 DUP1 PUSH1 0x8 ADD SLOAD SWAP1 DUP1 PUSH1 0x9 ADD DUP1 SLOAD PUSH2 0x7E1 SWAP1 PUSH2 0x2917 JUMP JUMPDEST DUP1 PUSH1 0x1F ADD PUSH1 0x20 DUP1 SWAP2 DIV MUL PUSH1 0x20 ADD PUSH1 0x40 MLOAD SWAP1 DUP2 ADD PUSH1 0x40 MSTORE DUP1 SWAP3 SWAP2 SWAP1 DUP2 DUP2 MSTORE PUSH1 0x20 ADD DUP3 DUP1 SLOAD PUSH2 0x80D SWAP1 PUSH2 0x2917 JUMP JUMPDEST DUP1 ISZERO PUSH2 0x85A JUMPI DUP1 PUSH1 0x1F LT PUSH2 0x82F JUMPI PUSH2 0x100 DUP1 DUP4 SLOAD DIV MUL DUP4 MSTORE SWAP2 PUSH1 0x20 ADD SWAP2 PUSH2 0x85A JUMP JUMPDEST DUP3 ADD SWAP2 SWAP1 PUSH1 0x0 MSTORE PUSH1 0x20 PUSH1 0x0 KECCAK256 SWAP1 JUMPDEST DUP2 SLOAD DUP2 MSTORE SWAP1 PUSH1 0x1 ADD SWAP1 PUSH1 0x20 ADD DUP1 DUP4 GT PUSH2 0x83D JUMPI DUP3 SWAP1 SUB PUSH1 0x1F AND DUP3 ADD SWAP2 JUMPDEST POP POP POP POP POP SWAP1 DUP1 PUSH1 0xA ADD PUSH1 0x0 SWAP1 SLOAD SWAP1 PUSH2 0x100 EXP SWAP1 DIV PUSH20 0xFFFFFFFFFFFFFFFFFFFFFFFFFFFFFFFFFFFFFFFF AND SWAP1 POP DUP11 JUMP JUMPDEST PUSH2 0x892 PUSH2 0x17DF JUMP JUMPDEST PUSH1 0x0 PUSH1 0x2 PUSH1 0x0 DUP8 DUP2 MSTORE PUSH1 0x20 ADD SWAP1 DUP2 MSTORE PUSH1 0x20 ADD PUSH1 0x0 KECCAK256 SWAP1 POP PUSH1 0x7 DUP1 DUP2 GT ISZERO PUSH2 0x8BC JUMPI PUSH2 0x8BB PUSH2 0x1ECA JUMP JUMPDEST JUMPDEST DUP2 PUSH1 0x3 ADD PUSH1 0x0 SWAP1 SLOAD SWAP1 PUSH2 0x100 EXP SWAP1 DIV PUSH1 0xFF AND PUSH1 0x7 DUP2 GT ISZERO PUSH2 0x8E0 JUMPI PUSH2 0x8DF PUSH2 0x1ECA JUMP JUMPDEST JUMPDEST LT PUSH2 0x920 JUMPI PUSH1 0x40 MLOAD PUSH32 0x8C379A000000000000000000000000000000000000000000000000000000000 DUP2 MSTORE PUSH1 0x4 ADD PUSH2 0x917 SWAP1 PUSH2 0x2C42 JUMP JUMPDEST PUSH1 0x40 MLOAD DUP1 SWAP2 SUB SWAP1 REVERT JUMPDEST PUSH1 0x7 DUP2 PUSH1 0x3 ADD PUSH1 0x0 PUSH2 0x100 EXP DUP2 SLOAD DUP2 PUSH1 0xFF MUL NOT AND SWAP1 DUP4 PUSH1 0x7 DUP2 GT ISZERO PUSH2 0x948 JUMPI PUSH2 0x947 PUSH2 0x1ECA JUMP JUMPDEST JUMPDEST MUL OR SWAP1 SSTORE POP TIMESTAMP DUP2 PUSH1 0x6 ADD DUP2 SWAP1 SSTORE POP DUP5 DUP2 PUSH1 0x2 ADD SWAP1 DUP2 PUSH2 0x967 SWAP2 SWAP1 PUSH2 0x2AF4 JUMP JUMPDEST POP DUP4 DUP2 PUSH1 0x9 ADD SWAP1 DUP2 PUSH2 0x979 SWAP2 SWAP1 PUSH2 0x2AF4 JUMP JUMPDEST POP DUP3 DUP2 PUSH1 0x7 ADD PUSH1 0x0 PUSH2 0x100 EXP DUP2 SLOAD DUP2 PUSH1 0xFF MUL NOT AND SWAP1 DUP4 ISZERO ISZERO MUL OR SWAP1 SSTORE POP DUP2 DUP2 PUSH1 0x8 ADD DUP2 SWAP1 SSTORE POP DUP6 PUSH32 0x7A73389FC44575A7AABEE4812879A5993EA3F1802F09BFEB30DA0B739961064E DUP5 DUP7 PUSH1 0x40 MLOAD PUSH2 0x9D1 SWAP3 SWAP2 SWAP1 PUSH2 0x2C62 JUMP JUMPDEST PUSH1 0x40 MLOAD DUP1 SWAP2 SUB SWAP1 LOG2 POP POP POP POP POP POP JUMP JUMPDEST PUSH1 0x1 SLOAD DUP2 JUMP JUMPDEST PUSH2 0x9EF PUSH2 0x17DF JUMP JUMPDEST PUSH2 0x9F9 PUSH1 0x0 PUSH2 0x1866 JUMP JUMPDEST JUMP JUMPDEST PUSH1 0x60 PUSH1 0x3 PUSH1 0x0 DUP4 DUP2 MSTORE PUSH1 0x20 ADD SWAP1 DUP2 MSTORE PUSH1 0x20 ADD PUSH1 0x0 KECCAK256 DUP1 SLOAD DUP1 PUSH1 0x20 MUL PUSH1 0x20 ADD PUSH1 0x40 MLOAD SWAP1 DUP2 ADD PUSH1 0x40 MSTORE DUP1 SWAP3 SWAP2 SWAP1 DUP2 DUP2 MSTORE PUSH1 0x20 ADD PUSH1 0x0 SWAP1 JUMPDEST DUP3 DUP3 LT ISZERO PUSH2 0xCB4 JUMPI DUP4 DUP3 SWAP1 PUSH1 0x0 MSTORE PUSH1 0x20 PUSH1 0x0 KECCAK256 SWAP1 PUSH1 0x5 MUL ADD PUSH1 0x40 MLOAD DUP1 PUSH1 0xA0 ADD PUSH1 0x40 MSTORE SWAP1 DUP2 PUSH1 0x0 DUP3 ADD DUP1 SLOAD PUSH2 0xA63 SWAP1 PUSH2 0x2917 JUMP JUMPDEST DUP1 PUSH1 0x1F ADD PUSH1 0x20 DUP1 SWAP2 DIV MUL PUSH1 0x20 ADD PUSH1 0x40 MLOAD SWAP1 DUP2 ADD PUSH1 0x40 MSTORE DUP1 SWAP3 SWAP2 SWAP1 DUP2 DUP2 MSTORE PUSH1 0x20 ADD DUP3 DUP1 SLOAD PUSH2 0xA8F SWAP1 PUSH2 0x2917 JUMP JUMPDEST DUP1 ISZERO PUSH2 0xADC JUMPI DUP1 PUSH1 0x1F LT PUSH2 0xAB1 JUMPI PUSH2 0x100 DUP1 DUP4 SLOAD DIV MUL DUP4 MSTORE SWAP2 PUSH1 0x20 ADD SWAP2 PUSH2 0xADC JUMP JUMPDEST DUP3 ADD SWAP2 SWAP1 PUSH1 0x0 MSTORE PUSH1 0x20 PUSH1 0x0 KECCAK256 SWAP1 JUMPDEST DUP2 SLOAD DUP2 MSTORE SWAP1 PUSH1 0x1 ADD SWAP1 PUSH1 0x20 ADD DUP1 DUP4 GT PUSH2 0xABF JUMPI DUP3 SWAP1 SUB PUSH1 0x1F AND DUP3 ADD SWAP2 JUMPDEST POP POP POP POP POP DUP2 MSTORE PUSH1 0x20 ADD PUSH1 0x1 DUP3 ADD DUP1 SLOAD PUSH2 0xAF5 SWAP1 PUSH2 0x2917 JUMP JUMPDEST DUP1 PUSH1 0x1F ADD PUSH1 0x20 DUP1 SWAP2 DIV MUL PUSH1 0x20 ADD PUSH1 0x40 MLOAD SWAP1 DUP2 ADD PUSH1 0x40 MSTORE DUP1 SWAP3 SWAP2 SWAP1 DUP2 DUP2 MSTORE PUSH1 0x20 ADD DUP3 DUP1 SLOAD PUSH2 0xB21 SWAP1 PUSH2 0x2917 JUMP JUMPDEST DUP1 ISZERO PUSH2 0xB6E JUMPI DUP1 PUSH1 0x1F LT PUSH2 0xB43 JUMPI PUSH2 0x100 DUP1 DUP4 SLOAD DIV MUL DUP4 MSTORE SWAP2 PUSH1 0x20 ADD SWAP2 PUSH2 0xB6E JUMP JUMPDEST DUP3 ADD SWAP2 SWAP1 PUSH1 0x0 MSTORE PUSH1 0x20 PUSH1 0x0 KECCAK256 SWAP1 JUMPDEST DUP2 SLOAD DUP2 MSTORE SWAP1 PUSH1 0x1 ADD SWAP1 PUSH1 0x20 ADD DUP1 DUP4 GT PUSH2 0xB51 JUMPI DUP3 SWAP1 SUB PUSH1 0x1F AND DUP3 ADD SWAP2 JUMPDEST POP POP POP POP POP DUP2 MSTORE PUSH1 0x20 ADD PUSH1 0x2 DUP3 ADD SLOAD DUP2 MSTORE PUSH1 0x20 ADD PUSH1 0x3 DUP3 ADD DUP1 SLOAD PUSH2 0xB91 SWAP1 PUSH2 0x2917 JUMP JUMPDEST DUP1 PUSH1 0x1F ADD PUSH1 0x20 DUP1 SWAP2 DIV MUL PUSH1 0x20 ADD PUSH1 0x40 MLOAD SWAP1 DUP2 ADD PUSH1 0x40 MSTORE DUP1 SWAP3 SWAP2 SWAP1 DUP2 DUP2 MSTORE PUSH1 0x20 ADD DUP3 DUP1 SLOAD PUSH2 0xBBD SWAP1 PUSH2 0x2917 JUMP JUMPDEST DUP1 ISZERO PUSH2 0xC0A JUMPI DUP1 PUSH1 0x1F LT PUSH2 0xBDF JUMPI PUSH2 0x100 DUP1 DUP4 SLOAD DIV MUL DUP4 MSTORE SWAP2 PUSH1 0x20 ADD SWAP2 PUSH2 0xC0A JUMP JUMPDEST DUP3 ADD SWAP2 SWAP1 PUSH1 0x0 MSTORE PUSH1 0x20 PUSH1 0x0 KECCAK256 SWAP1 JUMPDEST DUP2 SLOAD DUP2 MSTORE SWAP1 PUSH1 0x1 ADD SWAP1 PUSH1 0x20 ADD DUP1 DUP4 GT PUSH2 0xBED JUMPI DUP3 SWAP1 SUB PUSH1 0x1F AND DUP3 ADD SWAP2 JUMPDEST POP POP POP POP POP DUP2 MSTORE PUSH1 0x20 ADD PUSH1 0x4 DUP3 ADD DUP1 SLOAD PUSH2 0xC23 SWAP1 PUSH2 0x2917 JUMP JUMPDEST DUP1 PUSH1 0x1F ADD PUSH1 0x20 DUP1 SWAP2 DIV MUL PUSH1 0x20 ADD PUSH1 0x40 MLOAD SWAP1 DUP2 ADD PUSH1 0x40 MSTORE DUP1 SWAP3 SWAP2 SWAP1 DUP2 DUP2 MSTORE PUSH1 0x20 ADD DUP3 DUP1 SLOAD PUSH2 0xC4F SWAP1 PUSH2 0x2917 JUMP JUMPDEST DUP1 ISZERO PUSH2 0xC9C JUMPI DUP1 PUSH1 0x1F LT PUSH2 0xC71 JUMPI PUSH2 0x100 DUP1 DUP4 SLOAD DIV MUL DUP4 MSTORE SWAP2 PUSH1 0x20 ADD SWAP2 PUSH2 0xC9C JUMP JUMPDEST DUP3 ADD SWAP2 SWAP1 PUSH1 0x0 MSTORE PUSH1 0x20 PUSH1 0x0 KECCAK256 SWAP1 JUMPDEST DUP2 SLOAD DUP2 MSTORE SWAP1 PUSH1 0x1 ADD SWAP1 PUSH1 0x20 ADD DUP1 DUP4 GT PUSH2 0xC7F JUMPI DUP3 SWAP1 SUB PUSH1 0x1F AND DUP3 ADD SWAP2 JUMPDEST POP POP POP POP POP DUP2 MSTORE POP POP DUP2 MSTORE PUSH1 0x20 ADD SWAP1 PUSH1 0x1 ADD SWAP1 PUSH2 0xA30 JUMP JUMPDEST POP POP POP POP SWAP1 POP SWAP2 SWAP1 POP JUMP JUMPDEST PUSH2 0xCC7 PUSH2 0x17DF JUMP JUMPDEST PUSH1 0x0 PUSH1 0x2 PUSH1 0x0 DUP4 DUP2 MSTORE PUSH1 0x20 ADD SWAP1 DUP2 MSTORE PUSH1 0x20 ADD PUSH1 0x0 KECCAK256 SWAP1 POP PUSH1 0x7 DUP1 DUP2 GT ISZERO PUSH2 0xCF1 JUMPI PUSH2 0xCF0 PUSH2 0x1ECA JUMP JUMPDEST JUMPDEST DUP2 PUSH1 0x3 ADD PUSH1 0x0 SWAP1 SLOAD SWAP1 PUSH2 0x100 EXP SWAP1 DIV PUSH1 0xFF AND PUSH1 0x7 DUP2 GT ISZERO PUSH2 0xD15 JUMPI PUSH2 0xD14 PUSH2 0x1ECA JUMP JUMPDEST JUMPDEST LT PUSH2 0xD55 JUMPI PUSH1 0x40 MLOAD PUSH32 0x8C379A000000000000000000000000000000000000000000000000000000000 DUP2 MSTORE PUSH1 0x4 ADD PUSH2 0xD4C SWAP1 PUSH2 0x2C42 JUMP JUMPDEST PUSH1 0x40 MLOAD DUP1 SWAP2 SUB SWAP1 REVERT JUMPDEST PUSH1 0x1 DUP2 PUSH1 0x3 ADD PUSH1 0x0 SWAP1 SLOAD SWAP1 PUSH2 0x100 EXP SWAP1 DIV PUSH1 0xFF AND PUSH1 0x7 DUP2 GT ISZERO PUSH2 0xD7B JUMPI PUSH2 0xD7A PUSH2 0x1ECA JUMP JUMPDEST JUMPDEST PUSH2 0xD85 SWAP2 SWAP1 PUSH2 0x2CC1 JUMP JUMPDEST PUSH1 0x7 DUP2 GT ISZERO PUSH2 0xD97 JUMPI PUSH2 0xD96 PUSH2 0x1ECA JUMP JUMPDEST JUMPDEST DUP2 PUSH1 0x3 ADD PUSH1 0x0 PUSH2 0x100 EXP DUP2 SLOAD DUP2 PUSH1 0xFF MUL NOT AND SWAP1 DUP4 PUSH1 0x7 DUP2 GT ISZERO PUSH2 0xDBD JUMPI PUSH2 0xDBC PUSH2 0x1ECA JUMP JUMPDEST JUMPDEST MUL OR SWAP1 SSTORE POP DUP2 PUSH32 0xA92C850BB09D5AFA4A6230F4866FAD10264C6FEA20047156B39E3E24C5763AD4 DUP3 PUSH1 0x3 ADD PUSH1 0x0 SWAP1 SLOAD SWAP1 PUSH2 0x100 EXP SWAP1 DIV PUSH1 0xFF AND PUSH1 0x40 MLOAD PUSH2 0xE03 SWAP2 SWAP1 PUSH2 0x2CF5 JUMP JUMPDEST PUSH1 0x40 MLOAD DUP1 SWAP2 SUB SWAP1 LOG2 POP POP JUMP JUMPDEST PUSH1 0x0 DUP1 PUSH1 0x0 SWAP1 SLOAD SWAP1 PUSH2 0x100 EXP SWAP1 DIV PUSH20 0xFFFFFFFFFFFFFFFFFFFFFFFFFFFFFFFFFFFFFFFF AND SWAP1 POP SWAP1 JUMP JUMPDEST PUSH2 0xE40 PUSH2 0x1932 JUMP JUMPDEST PUSH1 0x2 PUSH1 0x0 DUP4 DUP2 MSTORE PUSH1 0x20 ADD SWAP1 DUP2 MSTORE PUSH1 0x20 ADD PUSH1 0x0 KECCAK256 PUSH1 0x40 MLOAD DUP1 PUSH2 0x160 ADD PUSH1 0x40 MSTORE SWAP1 DUP2 PUSH1 0x0 DUP3 ADD SLOAD DUP2 MSTORE PUSH1 0x20 ADD PUSH1 0x1 DUP3 ADD DUP1 SLOAD PUSH2 0xE79 SWAP1 PUSH2 0x2917 JUMP JUMPDEST DUP1 PUSH1 0x1F ADD PUSH1 0x20 DUP1 SWAP2 DIV MUL PUSH1 0x20 ADD PUSH1 0x40 MLOAD SWAP1 DUP2 ADD PUSH1 0x40 MSTORE DUP1 SWAP3 SWAP2 SWAP1 DUP2 DUP2 MSTORE PUSH1 0x20 ADD DUP3 DUP1 SLOAD PUSH2 0xEA5 SWAP1 PUSH2 0x2917 JUMP JUMPDEST DUP1 ISZERO PUSH2 0xEF2 JUMPI DUP1 PUSH1 0x1F LT PUSH2 0xEC7 JUMPI PUSH2 0x100 DUP1 DUP4 SLOAD DIV MUL DUP4 MSTORE SWAP2 PUSH1 0x20 ADD SWAP2 PUSH2 0xEF2 JUMP JUMPDEST DUP3 ADD SWAP2 SWAP1 PUSH1 0x0 MSTORE PUSH1 0x20 PUSH1 0x0 KECCAK256 SWAP1 JUMPDEST DUP2 SLOAD DUP2 MSTORE SWAP1 PUSH1 0x1 ADD SWAP1 PUSH1 0x20 ADD DUP1 DUP4 GT PUSH2 0xED5 JUMPI DUP3 SWAP1 SUB PUSH1 0x1F AND DUP3 ADD SWAP2 JUMPDEST POP POP POP POP POP DUP2 MSTORE PUSH1 0x20 ADD PUSH1 0x2 DUP3 ADD DUP1 SLOAD PUSH2 0xF0B SWAP1 PUSH2 0x2917 JUMP JUMPDEST DUP1 PUSH1 0x1F ADD PUSH1 0x20 DUP1 SWAP2 DIV MUL PUSH1 0x20 ADD PUSH1 0x40 MLOAD SWAP1 DUP2 ADD PUSH1 0x40 MSTORE DUP1 SWAP3 SWAP2 SWAP1 DUP2 DUP2 MSTORE PUSH1 0x20 ADD DUP3 DUP1 SLOAD PUSH2 0xF37 SWAP1 PUSH2 0x2917 JUMP JUMPDEST DUP1 ISZERO PUSH2 0xF84 JUMPI DUP1 PUSH1 0x1F LT PUSH2 0xF59 JUMPI PUSH2 0x100 DUP1 DUP4 SLOAD DIV MUL DUP4 MSTORE SWAP2 PUSH1 0x20 ADD SWAP2 PUSH2 0xF84 JUMP JUMPDEST DUP3 ADD SWAP2 SWAP1 PUSH1 0x0 MSTORE PUSH1 0x20 PUSH1 0x0 KECCAK256 SWAP1 JUMPDEST DUP2 SLOAD DUP2 MSTORE SWAP1 PUSH1 0x1 ADD SWAP1 PUSH1 0x20 ADD DUP1 DUP4 GT PUSH2 0xF67 JUMPI DUP3 SWAP1 SUB PUSH1 0x1F AND DUP3 ADD SWAP2 JUMPDEST POP POP POP POP POP DUP2 MSTORE PUSH1 0x20 ADD PUSH1 0x3 DUP3 ADD PUSH1 0x0 SWAP1 SLOAD SWAP1 PUSH2 0x100 EXP SWAP1 DIV PUSH1 0xFF AND PUSH1 0x7 DUP2 GT ISZERO PUSH2 0xFB2 JUMPI PUSH2 0xFB1 PUSH2 0x1ECA JUMP JUMPDEST JUMPDEST PUSH1 0x7 DUP2 GT ISZERO PUSH2 0xFC4 JUMPI PUSH2 0xFC3 PUSH2 0x1ECA JUMP JUMPDEST JUMPDEST DUP2 MSTORE PUSH1 0x20 ADD PUSH1 0x4 DUP3 ADD DUP1 SLOAD DUP1 PUSH1 0x20 MUL PUSH1 0x20 ADD PUSH1 0x40 MLOAD SWAP1 DUP2 ADD PUSH1 0x40 MSTORE DUP1 SWAP3 SWAP2 SWAP1 DUP2 DUP2 MSTORE PUSH1 0x20 ADD PUSH1 0x0 SWAP1 JUMPDEST DUP3 DUP3 LT ISZERO PUSH2 0x1099 JUMPI DUP4 DUP3 SWAP1 PUSH1 0x0 MSTORE PUSH1 0x20 PUSH1 0x0 KECCAK256 ADD DUP1 SLOAD PUSH2 0x100C SWAP1 PUSH2 0x2917 JUMP JUMPDEST DUP1 PUSH1 0x1F ADD PUSH1 0x20 DUP1 SWAP2 DIV MUL PUSH1 0x20 ADD PUSH1 0x40 MLOAD SWAP1 DUP2 ADD PUSH1 0x40 MSTORE DUP1 SWAP3 SWAP2 SWAP1 DUP2 DUP2 MSTORE PUSH1 0x20 ADD DUP3 DUP1 SLOAD PUSH2 0x1038 SWAP1 PUSH2 0x2917 JUMP JUMPDEST DUP1 ISZERO PUSH2 0x1085 JUMPI DUP1 PUSH1 0x1F LT PUSH2 0x105A JUMPI PUSH2 0x100 DUP1 DUP4 SLOAD DIV MUL DUP4 MSTORE SWAP2 PUSH1 0x20 ADD SWAP2 PUSH2 0x1085 JUMP JUMPDEST DUP3 ADD SWAP2 SWAP1 PUSH1 0x0 MSTORE PUSH1 0x20 PUSH1 0x0 KECCAK256 SWAP1 JUMPDEST DUP2 SLOAD DUP2 MSTORE SWAP1 PUSH1 0x1 ADD SWAP1 PUSH1 0x20 ADD DUP1 DUP4 GT PUSH2 0x1068 JUMPI DUP3 SWAP1 SUB PUSH1 0x1F AND DUP3 ADD SWAP2 JUMPDEST POP POP POP POP POP DUP2 MSTORE PUSH1 0x20 ADD SWAP1 PUSH1 0x1 ADD SWAP1 PUSH2 0xFED JUMP JUMPDEST POP POP POP POP DUP2 MSTORE PUSH1 0x20 ADD PUSH1 0x5 DUP3 ADD SLOAD DUP2 MSTORE PUSH1 0x20 ADD PUSH1 0x6 DUP3 ADD SLOAD DUP2 MSTORE PUSH1 0x20 ADD PUSH1 0x7 DUP3 ADD PUSH1 0x0 SWAP1 SLOAD SWAP1 PUSH2 0x100 EXP SWAP1 DIV PUSH1 0xFF AND ISZERO ISZERO ISZERO ISZERO DUP2 MSTORE PUSH1 0x20 ADD PUSH1 0x8 DUP3 ADD SLOAD DUP2 MSTORE PUSH1 0x20 ADD PUSH1 0x9 DUP3 ADD DUP1 SLOAD PUSH2 0x10EA SWAP1 PUSH2 0x2917 JUMP JUMPDEST DUP1 PUSH1 0x1F ADD PUSH1 0x20 DUP1 SWAP2 DIV MUL PUSH1 0x20 ADD PUSH1 0x40 MLOAD SWAP1 DUP2 ADD PUSH1 0x40 MSTORE DUP1 SWAP3 SWAP2 SWAP1 DUP2 DUP2 MSTORE PUSH1 0x20 ADD DUP3 DUP1 SLOAD PUSH2 0x1116 SWAP1 PUSH2 0x2917 JUMP JUMPDEST DUP1 ISZERO PUSH2 0x1163 JUMPI DUP1 PUSH1 0x1F LT PUSH2 0x1138 JUMPI PUSH2 0x100 DUP1 DUP4 SLOAD DIV MUL DUP4 MSTORE SWAP2 PUSH1 0x20 ADD SWAP2 PUSH2 0x1163 JUMP JUMPDEST DUP3 ADD SWAP2 SWAP1 PUSH1 0x0 MSTORE PUSH1 0x20 PUSH1 0x0 KECCAK256 SWAP1 JUMPDEST DUP2 SLOAD DUP2 MSTORE SWAP1 PUSH1 0x1 ADD SWAP1 PUSH1 0x20 ADD DUP1 DUP4 GT PUSH2 0x1146 JUMPI DUP3 SWAP1 SUB PUSH1 0x1F AND DUP3 ADD SWAP2 JUMPDEST POP POP POP POP POP DUP2 MSTORE PUSH1 0x20 ADD PUSH1 0xA DUP3 ADD PUSH1 0x0 SWAP1 SLOAD SWAP1 PUSH2 0x100 EXP SWAP1 DIV PUSH20 0xFFFFFFFFFFFFFFFFFFFFFFFFFFFFFFFFFFFFFFFF AND PUSH20 0xFFFFFFFFFFFFFFFFFFFFFFFFFFFFFFFFFFFFFFFF AND PUSH20 0xFFFFFFFFFFFFFFFFFFFFFFFFFFFFFFFFFFFFFFFF AND DUP2 MSTORE POP POP SWAP1 POP SWAP2 SWAP1 POP JUMP JUMPDEST PUSH2 0x11D1 PUSH2 0x17DF JUMP JUMPDEST PUSH1 0x0 PUSH1 0x2 PUSH1 0x0 DUP8 DUP2 MSTORE PUSH1 0x20 ADD SWAP1 DUP2 MSTORE PUSH1 0x20 ADD PUSH1 0x0 KECCAK256 PUSH1 0x5 ADD SLOAD GT PUSH2 0x122A JUMPI PUSH1 0x40 MLOAD PUSH32 0x8C379A000000000000000000000000000000000000000000000000000000000 DUP2 MSTORE PUSH1 0x4 ADD PUSH2 0x1221 SWAP1 PUSH2 0x2D5C JUMP JUMPDEST PUSH1 0x40 MLOAD DUP1 SWAP2 SUB SWAP1 REVERT JUMPDEST PUSH1 0x7 DUP1 DUP2 GT ISZERO PUSH2 0x123D JUMPI PUSH2 0x123C PUSH2 0x1ECA JUMP JUMPDEST JUMPDEST PUSH1 0x2 PUSH1 0x0 DUP8 DUP2 MSTORE PUSH1 0x20 ADD SWAP1 DUP2 MSTORE PUSH1 0x20 ADD PUSH1 0x0 KECCAK256 PUSH1 0x3 ADD PUSH1 0x0 SWAP1 SLOAD SWAP1 PUSH2 0x100 EXP SWAP1 DIV PUSH1 0xFF AND PUSH1 0x7 DUP2 GT ISZERO PUSH2 0x1273 JUMPI PUSH2 0x1272 PUSH2 0x1ECA JUMP JUMPDEST JUMPDEST LT PUSH2 0x12B3 JUMPI PUSH1 0x40 MLOAD PUSH32 0x8C379A000000000000000000000000000000000000000000000000000000000 DUP2 MSTORE PUSH1 0x4 ADD PUSH2 0x12AA SWAP1 PUSH2 0x2DC8 JUMP JUMPDEST PUSH1 0x40 MLOAD DUP1 SWAP2 SUB SWAP1 REVERT JUMPDEST PUSH1 0x3 PUSH1 0x0 DUP7 DUP2 MSTORE PUSH1 0x20 ADD SWAP1 DUP2 MSTORE PUSH1 0x20 ADD PUSH1 0x0 KECCAK256 PUSH1 0x40 MLOAD DUP1 PUSH1 0xA0 ADD PUSH1 0x40 MSTORE DUP1 DUP7 DUP2 MSTORE PUSH1 0x20 ADD DUP6 DUP2 MSTORE PUSH1 0x20 ADD TIMESTAMP DUP2 MSTORE PUSH1 0x20 ADD DUP5 DUP2 MSTORE PUSH1 0x20 ADD DUP4 DUP2 MSTORE POP SWAP1 DUP1 PUSH1 0x1 DUP2 SLOAD ADD DUP1 DUP3 SSTORE DUP1 SWAP2 POP POP PUSH1 0x1 SWAP1 SUB SWAP1 PUSH1 0x0 MSTORE PUSH1 0x20 PUSH1 0x0 KECCAK256 SWAP1 PUSH1 0x5 MUL ADD PUSH1 0x0 SWAP1 SWAP2 SWAP1 SWAP2 SWAP1 SWAP2 POP PUSH1 0x0 DUP3 ADD MLOAD DUP2 PUSH1 0x0 ADD SWAP1 DUP2 PUSH2 0x132B SWAP2 SWAP1 PUSH2 0x2AF4 JUMP JUMPDEST POP PUSH1 0x20 DUP3 ADD MLOAD DUP2 PUSH1 0x1 ADD SWAP1 DUP2 PUSH2 0x1341 SWAP2 SWAP1 PUSH2 0x2AF4 JUMP JUMPDEST POP PUSH1 0x40 DUP3 ADD MLOAD DUP2 PUSH1 0x2 ADD SSTORE PUSH1 0x60 DUP3 ADD MLOAD DUP2 PUSH1 0x3 ADD SWAP1 DUP2 PUSH2 0x1361 SWAP2 SWAP1 PUSH2 0x2AF4 JUMP JUMPDEST POP PUSH1 0x80 DUP3 ADD MLOAD DUP2 PUSH1 0x4 ADD SWAP1 DUP2 PUSH2 0x1377 SWAP2 SWAP1 PUSH2 0x2E43 JUMP JUMPDEST POP POP POP DUP5 PUSH32 0x3978352220D30371F18897CBEF0303FDBF201A5D5967E63A52098C6310E346A1 DUP6 TIMESTAMP PUSH1 0x40 MLOAD PUSH2 0x13AC SWAP3 SWAP2 SWAP1 PUSH2 0x2F15 JUMP JUMPDEST PUSH1 0x40 MLOAD DUP1 SWAP2 SUB SWAP1 LOG2 POP POP POP POP POP JUMP JUMPDEST PUSH1 0x4 PUSH1 0x20 MSTORE DUP2 PUSH1 0x0 MSTORE PUSH1 0x40 PUSH1 0x0 KECCAK256 DUP2 DUP2 SLOAD DUP2 LT PUSH2 0x13D7 JUMPI PUSH1 0x0 DUP1 REVERT JUMPDEST SWAP1 PUSH1 0x0 MSTORE PUSH1 0x20 PUSH1 0x0 KECCAK256 SWAP1 PUSH1 0x4 MUL ADD PUSH1 0x0 SWAP2 POP SWAP2 POP POP DUP1 PUSH1 0x0 ADD DUP1 SLOAD PUSH2 0x13FB SWAP1 PUSH2 0x2917 JUMP JUMPDEST DUP1 PUSH1 0x1F ADD PUSH1 0x20 DUP1 SWAP2 DIV MUL PUSH1 0x20 ADD PUSH1 0x40 MLOAD SWAP1 DUP2 ADD PUSH1 0x40 MSTORE DUP1 SWAP3 SWAP2 SWAP1 DUP2 DUP2 MSTORE PUSH1 0x20 ADD DUP3 DUP1 SLOAD PUSH2 0x1427 SWAP1 PUSH2 0x2917 JUMP JUMPDEST DUP1 ISZERO PUSH2 0x1474 JUMPI DUP1 PUSH1 0x1F LT PUSH2 0x1449 JUMPI PUSH2 0x100 DUP1 DUP4 SLOAD DIV MUL DUP4 MSTORE SWAP2 PUSH1 0x20 ADD SWAP2 PUSH2 0x1474 JUMP JUMPDEST DUP3 ADD SWAP2 SWAP1 PUSH1 0x0 MSTORE PUSH1 0x20 PUSH1 0x0 KECCAK256 SWAP1 JUMPDEST DUP2 SLOAD DUP2 MSTORE SWAP1 PUSH1 0x1 ADD SWAP1 PUSH1 0x20 ADD DUP1 DUP4 GT PUSH2 0x1457 JUMPI DUP3 SWAP1 SUB PUSH1 0x1F AND DUP3 ADD SWAP2 JUMPDEST POP POP POP POP POP SWAP1 DUP1 PUSH1 0x1 ADD PUSH1 0x0 SWAP1 SLOAD SWAP1 PUSH2 0x100 EXP SWAP1 DIV PUSH1 0xFF AND SWAP1 DUP1 PUSH1 0x2 ADD SLOAD SWAP1 DUP1 PUSH1 0x3 ADD DUP1 SLOAD PUSH2 0x14A2 SWAP1 PUSH2 0x2917 JUMP JUMPDEST DUP1 PUSH1 0x1F ADD PUSH1 0x20 DUP1 SWAP2 DIV MUL PUSH1 0x20 ADD PUSH1 0x40 MLOAD SWAP1 DUP2 ADD PUSH1 0x40 MSTORE DUP1 SWAP3 SWAP2 SWAP1 DUP2 DUP2 MSTORE PUSH1 0x20 ADD DUP3 DUP1 SLOAD PUSH2 0x14CE SWAP1 PUSH2 0x2917 JUMP JUMPDEST DUP1 ISZERO PUSH2 0x151B JUMPI DUP1 PUSH1 0x1F LT PUSH2 0x14F0 JUMPI PUSH2 0x100 DUP1 DUP4 SLOAD DIV MUL DUP4 MSTORE SWAP2 PUSH1 0x20 ADD SWAP2 PUSH2 0x151B JUMP JUMPDEST DUP3 ADD SWAP2 SWAP1 PUSH1 0x0 MSTORE PUSH1 0x20 PUSH1 0x0 KECCAK256 SWAP1 JUMPDEST DUP2 SLOAD DUP2 MSTORE SWAP1 PUSH1 0x1 ADD SWAP1 PUSH1 0x20 ADD DUP1 DUP4 GT PUSH2 0x14FE JUMPI DUP3 SWAP1 SUB PUSH1 0x1F AND DUP3 ADD SWAP2 JUMPDEST POP POP POP POP POP SWAP1 POP DUP5 JUMP JUMPDEST PUSH2 0x152D PUSH2 0x17DF JUMP JUMPDEST PUSH1 0x0 PUSH20 0xFFFFFFFFFFFFFFFFFFFFFFFFFFFFFFFFFFFFFFFF AND DUP2 PUSH20 0xFFFFFFFFFFFFFFFFFFFFFFFFFFFFFFFFFFFFFFFF AND SUB PUSH2 0x159F JUMPI PUSH1 0x0 PUSH1 0x40 MLOAD PUSH32 0x1E4FBDF700000000000000000000000000000000000000000000000000000000 DUP2 MSTORE PUSH1 0x4 ADD PUSH2 0x1596 SWAP2 SWAP1 PUSH2 0x2322 JUMP JUMPDEST PUSH1 0x40 MLOAD DUP1 SWAP2 SUB SWAP1 REVERT JUMPDEST PUSH2 0x15A8 DUP2 PUSH2 0x1866 JUMP JUMPDEST POP JUMP JUMPDEST PUSH1 0x0 PUSH1 0x1 PUSH1 0x0 DUP2 SLOAD DUP1 SWAP3 SWAP2 SWAP1 PUSH2 0x15C0 SWAP1 PUSH2 0x2F45 JUMP JUMPDEST SWAP2 SWAP1 POP SSTORE POP PUSH1 0x0 PUSH1 0x1 SLOAD SWAP1 POP PUSH1 0x40 MLOAD DUP1 PUSH2 0x160 ADD PUSH1 0x40 MSTORE DUP1 DUP3 DUP2 MSTORE PUSH1 0x20 ADD DUP6 DUP2 MSTORE PUSH1 0x20 ADD PUSH1 0x40 MLOAD DUP1 PUSH1 0x20 ADD PUSH1 0x40 MSTORE DUP1 PUSH1 0x0 DUP2 MSTORE POP DUP2 MSTORE PUSH1 0x20 ADD PUSH1 0x0 PUSH1 0x7 DUP2 GT ISZERO PUSH2 0x160D JUMPI PUSH2 0x160C PUSH2 0x1ECA JUMP JUMPDEST JUMPDEST DUP2 MSTORE PUSH1 0x20 ADD DUP5 DUP2 MSTORE PUSH1 0x20 ADD TIMESTAMP DUP2 MSTORE PUSH1 0x20 ADD PUSH1 0x0 DUP2 MSTORE PUSH1 0x20 ADD PUSH1 0x0 ISZERO ISZERO DUP2 MSTORE PUSH1 0x20 ADD PUSH1 0x0 DUP2 MSTORE PUSH1 0x20 ADD PUSH1 0x40 MLOAD DUP1 PUSH1 0x20 ADD PUSH1 0x40 MSTORE DUP1 PUSH1 0x0 DUP2 MSTORE POP DUP2 MSTORE PUSH1 0x20 ADD CALLER PUSH20 0xFFFFFFFFFFFFFFFFFFFFFFFFFFFFFFFFFFFFFFFF AND DUP2 MSTORE POP PUSH1 0x2 PUSH1 0x0 DUP4 DUP2 MSTORE PUSH1 0x20 ADD SWAP1 DUP2 MSTORE PUSH1 0x20 ADD PUSH1 0x0 KECCAK256 PUSH1 0x0 DUP3 ADD MLOAD DUP2 PUSH1 0x0 ADD SSTORE PUSH1 0x20 DUP3 ADD MLOAD DUP2 PUSH1 0x1 ADD SWAP1 DUP2 PUSH2 0x1696 SWAP2 SWAP1 PUSH2 0x2AF4 JUMP JUMPDEST POP PUSH1 0x40 DUP3 ADD MLOAD DUP2 PUSH1 0x2 ADD SWAP1 DUP2 PUSH2 0x16AC SWAP2 SWAP1 PUSH2 0x2AF4 JUMP JUMPDEST POP PUSH1 0x60 DUP3 ADD MLOAD DUP2 PUSH1 0x3 ADD PUSH1 0x0 PUSH2 0x100 EXP DUP2 SLOAD DUP2 PUSH1 0xFF MUL NOT AND SWAP1 DUP4 PUSH1 0x7 DUP2 GT ISZERO PUSH2 0x16D8 JUMPI PUSH2 0x16D7 PUSH2 0x1ECA JUMP JUMPDEST JUMPDEST MUL OR SWAP1 SSTORE POP PUSH1 0x80 DUP3 ADD MLOAD DUP2 PUSH1 0x4 ADD SWAP1 DUP1 MLOAD SWAP1 PUSH1 0x20 ADD SWAP1 PUSH2 0x16F9 SWAP3 SWAP2 SWAP1 PUSH2 0x19B6 JUMP JUMPDEST POP PUSH1 0xA0 DUP3 ADD MLOAD DUP2 PUSH1 0x5 ADD SSTORE PUSH1 0xC0 DUP3 ADD MLOAD DUP2 PUSH1 0x6 ADD SSTORE PUSH1 0xE0 DUP3 ADD MLOAD DUP2 PUSH1 0x7 ADD PUSH1 0x0 PUSH2 0x100 EXP DUP2 SLOAD DUP2 PUSH1 0xFF MUL NOT AND SWAP1 DUP4 ISZERO ISZERO MUL OR SWAP1 SSTORE POP PUSH2 0x100 DUP3 ADD MLOAD DUP2 PUSH1 0x8 ADD SSTORE PUSH2 0x120 DUP3 ADD MLOAD DUP2 PUSH1 0x9 ADD SWAP1 DUP2 PUSH2 0x174F SWAP2 SWAP1 PUSH2 0x2AF4 JUMP JUMPDEST POP PUSH2 0x140 DUP3 ADD MLOAD DUP2 PUSH1 0xA ADD PUSH1 0x0 PUSH2 0x100 EXP DUP2 SLOAD DUP2 PUSH20 0xFFFFFFFFFFFFFFFFFFFFFFFFFFFFFFFFFFFFFFFF MUL NOT AND SWAP1 DUP4 PUSH20 0xFFFFFFFFFFFFFFFFFFFFFFFFFFFFFFFFFFFFFFFF AND MUL OR SWAP1 SSTORE POP SWAP1 POP POP DUP1 PUSH32 0x51BE65E6E66642FDCAFF78A44C1AC3EBA9C711AA475CD1AE7806D2BEFCA75C2E DUP6 CALLER PUSH1 0x40 MLOAD PUSH2 0x17CD SWAP3 SWAP2 SWAP1 PUSH2 0x2F8D JUMP JUMPDEST PUSH1 0x40 MLOAD DUP1 SWAP2 SUB SWAP1 LOG2 DUP1 SWAP2 POP POP SWAP3 SWAP2 POP POP JUMP JUMPDEST PUSH2 0x17E7 PUSH2 0x192A JUMP JUMPDEST PUSH20 0xFFFFFFFFFFFFFFFFFFFFFFFFFFFFFFFFFFFFFFFF AND PUSH2 0x1805 PUSH2 0xE0F JUMP JUMPDEST PUSH20 0xFFFFFFFFFFFFFFFFFFFFFFFFFFFFFFFFFFFFFFFF AND EQ PUSH2 0x1864 JUMPI PUSH2 0x1828 PUSH2 0x192A JUMP JUMPDEST PUSH1 0x40 MLOAD PUSH32 0x118CDAA700000000000000000000000000000000000000000000000000000000 DUP2 MSTORE PUSH1 0x4 ADD PUSH2 0x185B SWAP2 SWAP1 PUSH2 0x2322 JUMP JUMPDEST PUSH1 0x40 MLOAD DUP1 SWAP2 SUB SWAP1 REVERT JUMPDEST JUMP JUMPDEST PUSH1 0x0 DUP1 PUSH1 0x0 SWAP1 SLOAD SWAP1 PUSH2 0x100 EXP SWAP1 DIV PUSH20 0xFFFFFFFFFFFFFFFFFFFFFFFFFFFFFFFFFFFFFFFF AND SWAP1 POP DUP2 PUSH1 0x0 DUP1 PUSH2 0x100 EXP DUP2 SLOAD DUP2 PUSH20 0xFFFFFFFFFFFFFFFFFFFFFFFFFFFFFFFFFFFFFFFF MUL NOT AND SWAP1 DUP4 PUSH20 0xFFFFFFFFFFFFFFFFFFFFFFFFFFFFFFFFFFFFFFFF AND MUL OR SWAP1 SSTORE POP DUP2 PUSH20 0xFFFFFFFFFFFFFFFFFFFFFFFFFFFFFFFFFFFFFFFF AND DUP2 PUSH20 0xFFFFFFFFFFFFFFFFFFFFFFFFFFFFFFFFFFFFFFFF AND PUSH32 0x8BE0079C531659141344CD1FD0A4F28419497F9722A3DAAFE3B4186F6B6457E0 PUSH1 0x40 MLOAD PUSH1 0x40 MLOAD DUP1 SWAP2 SUB SWAP1 LOG3 POP POP JUMP JUMPDEST PUSH1 0x0 CALLER SWAP1 POP SWAP1 JUMP JUMPDEST PUSH1 0x40 MLOAD DUP1 PUSH2 0x160 ADD PUSH1 0x40 MSTORE DUP1 PUSH1 0x0 DUP2 MSTORE PUSH1 0x20 ADD PUSH1 0x60 DUP2 MSTORE PUSH1 0x20 ADD PUSH1 0x60 DUP2 MSTORE PUSH1 0x20 ADD PUSH1 0x0 PUSH1 0x7 DUP2 GT ISZERO PUSH2 0x1967 JUMPI PUSH2 0x1966 PUSH2 0x1ECA JUMP JUMPDEST JUMPDEST DUP2 MSTORE PUSH1 0x20 ADD PUSH1 0x60 DUP2 MSTORE PUSH1 0x20 ADD PUSH1 0x0 DUP2 MSTORE PUSH1 0x20 ADD PUSH1 0x0 DUP2 MSTORE PUSH1 0x20 ADD PUSH1 0x0 ISZERO ISZERO DUP2 MSTORE PUSH1 0x20 ADD PUSH1 0x0 DUP2 MSTORE PUSH1 0x20 ADD PUSH1 0x60 DUP2 MSTORE PUSH1 0x20 ADD PUSH1 0x0 PUSH20 0xFFFFFFFFFFFFFFFFFFFFFFFFFFFFFFFFFFFFFFFF AND DUP2 MSTORE POP SWAP1 JUMP JUMPDEST DUP3 DUP1 SLOAD DUP3 DUP3 SSTORE SWAP1 PUSH1 0x0 MSTORE PUSH1 0x20 PUSH1 0x0 KECCAK256 SWAP1 DUP2 ADD SWAP3 DUP3 ISZERO PUSH2 0x19FE JUMPI SWAP2 PUSH1 0x20 MUL DUP3 ADD JUMPDEST DUP3 DUP2 GT ISZERO PUSH2 0x19FD JUMPI DUP3 MLOAD DUP3 SWAP1 DUP2 PUSH2 0x19ED SWAP2 SWAP1 PUSH2 0x2AF4 JUMP JUMPDEST POP SWAP2 PUSH1 0x20 ADD SWAP2 SWAP1 PUSH1 0x1 ADD SWAP1 PUSH2 0x19D6 JUMP JUMPDEST JUMPDEST POP SWAP1 POP PUSH2 0x1A0B SWAP2 SWAP1 PUSH2 0x1A0F JUMP JUMPDEST POP SWAP1 JUMP JUMPDEST JUMPDEST DUP1 DUP3 GT ISZERO PUSH2 0x1A2F JUMPI PUSH1 0x0 DUP2 DUP2 PUSH2 0x1A26 SWAP2 SWAP1 PUSH2 0x1A33 JUMP JUMPDEST POP PUSH1 0x1 ADD PUSH2 0x1A10 JUMP JUMPDEST POP SWAP1 JUMP JUMPDEST POP DUP1 SLOAD PUSH2 0x1A3F SWAP1 PUSH2 0x2917 JUMP JUMPDEST PUSH1 0x0 DUP3 SSTORE DUP1 PUSH1 0x1F LT PUSH2 0x1A51 JUMPI POP PUSH2 0x1A70 JUMP JUMPDEST PUSH1 0x1F ADD PUSH1 0x20 SWAP1 DIV SWAP1 PUSH1 0x0 MSTORE PUSH1 0x20 PUSH1 0x0 KECCAK256 SWAP1 DUP2 ADD SWAP1 PUSH2 0x1A6F SWAP2 SWAP1 PUSH2 0x1A73 JUMP JUMPDEST JUMPDEST POP JUMP JUMPDEST JUMPDEST DUP1 DUP3 GT ISZERO PUSH2 0x1A8C JUMPI PUSH1 0x0 DUP2 PUSH1 0x0 SWAP1 SSTORE POP PUSH1 0x1 ADD PUSH2 0x1A74 JUMP JUMPDEST POP SWAP1 JUMP JUMPDEST PUSH1 0x0 PUSH1 0x40 MLOAD SWAP1 POP SWAP1 JUMP JUMPDEST PUSH1 0x0 DUP1 REVERT JUMPDEST PUSH1 0x0 DUP1 REVERT JUMPDEST PUSH1 0x0 DUP2 SWAP1 POP SWAP2 SWAP1 POP JUMP JUMPDEST PUSH2 0x1AB7 DUP2 PUSH2 0x1AA4 JUMP JUMPDEST DUP2 EQ PUSH2 0x1AC2 JUMPI PUSH1 0x0 DUP1 REVERT JUMPDEST POP JUMP JUMPDEST PUSH1 0x0 DUP2 CALLDATALOAD SWAP1 POP PUSH2 0x1AD4 DUP2 PUSH2 0x1AAE JUMP JUMPDEST SWAP3 SWAP2 POP POP JUMP JUMPDEST PUSH1 0x0 DUP1 PUSH1 0x40 DUP4 DUP6 SUB SLT ISZERO PUSH2 0x1AF1 JUMPI PUSH2 0x1AF0 PUSH2 0x1A9A JUMP JUMPDEST JUMPDEST PUSH1 0x0 PUSH2 0x1AFF DUP6 DUP3 DUP7 ADD PUSH2 0x1AC5 JUMP JUMPDEST SWAP3 POP POP PUSH1 0x20 PUSH2 0x1B10 DUP6 DUP3 DUP7 ADD PUSH2 0x1AC5 JUMP JUMPDEST SWAP2 POP POP SWAP3 POP SWAP3 SWAP1 POP JUMP JUMPDEST PUSH1 0x0 DUP2 MLOAD SWAP1 POP SWAP2 SWAP1 POP JUMP JUMPDEST PUSH1 0x0 DUP3 DUP3 MSTORE PUSH1 0x20 DUP3 ADD SWAP1 POP SWAP3 SWAP2 POP POP JUMP JUMPDEST PUSH1 0x0 JUMPDEST DUP4 DUP2 LT ISZERO PUSH2 0x1B54 JUMPI DUP1 DUP3 ADD MLOAD DUP2 DUP5 ADD MSTORE PUSH1 0x20 DUP2 ADD SWAP1 POP PUSH2 0x1B39 JUMP JUMPDEST PUSH1 0x0 DUP5 DUP5 ADD MSTORE POP POP POP POP JUMP JUMPDEST PUSH1 0x0 PUSH1 0x1F NOT PUSH1 0x1F DUP4 ADD AND SWAP1 POP SWAP2 SWAP1 POP JUMP JUMPDEST PUSH1 0x0 PUSH2 0x1B7C DUP3 PUSH2 0x1B1A JUMP JUMPDEST PUSH2 0x1B86 DUP2 DUP6 PUSH2 0x1B25 JUMP JUMPDEST SWAP4 POP PUSH2 0x1B96 DUP2 DUP6 PUSH1 0x20 DUP7 ADD PUSH2 0x1B36 JUMP JUMPDEST PUSH2 0x1B9F DUP2 PUSH2 0x1B60 JUMP JUMPDEST DUP5 ADD SWAP2 POP POP SWAP3 SWAP2 POP POP JUMP JUMPDEST PUSH2 0x1BB3 DUP2 PUSH2 0x1AA4 JUMP JUMPDEST DUP3 MSTORE POP POP JUMP JUMPDEST PUSH1 0x0 DUP2 MLOAD SWAP1 POP SWAP2 SWAP1 POP JUMP JUMPDEST PUSH1 0x0 DUP3 DUP3 MSTORE PUSH1 0x20 DUP3 ADD SWAP1 POP SWAP3 SWAP2 POP POP JUMP JUMPDEST PUSH1 0x0 PUSH2 0x1BE0 DUP3 PUSH2 0x1BB9 JUMP JUMPDEST PUSH2 0x1BEA DUP2 DUP6 PUSH2 0x1BC4 JUMP JUMPDEST SWAP4 POP PUSH2 0x1BFA DUP2 DUP6 PUSH1 0x20 DUP7 ADD PUSH2 0x1B36 JUMP JUMPDEST PUSH2 0x1C03 DUP2 PUSH2 0x1B60 JUMP JUMPDEST DUP5 ADD SWAP2 POP POP SWAP3 SWAP2 POP POP JUMP JUMPDEST PUSH1 0x0 PUSH1 0xA0 DUP3 ADD SWAP1 POP DUP2 DUP2 SUB PUSH1 0x0 DUP4 ADD MSTORE PUSH2 0x1C28 DUP2 DUP9 PUSH2 0x1B71 JUMP JUMPDEST SWAP1 POP DUP2 DUP2 SUB PUSH1 0x20 DUP4 ADD MSTORE PUSH2 0x1C3C DUP2 DUP8 PUSH2 0x1B71 JUMP JUMPDEST SWAP1 POP PUSH2 0x1C4B PUSH1 0x40 DUP4 ADD DUP7 PUSH2 0x1BAA JUMP JUMPDEST DUP2 DUP2 SUB PUSH1 0x60 DUP4 ADD MSTORE PUSH2 0x1C5D DUP2 DUP6 PUSH2 0x1B71 JUMP JUMPDEST SWAP1 POP DUP2 DUP2 SUB PUSH1 0x80 DUP4 ADD MSTORE PUSH2 0x1C71 DUP2 DUP5 PUSH2 0x1BD5 JUMP JUMPDEST SWAP1 POP SWAP7 SWAP6 POP POP POP POP POP POP JUMP JUMPDEST PUSH1 0x0 DUP1 REVERT JUMPDEST PUSH1 0x0 DUP1 REVERT JUMPDEST PUSH32 0x4E487B7100000000000000000000000000000000000000000000000000000000 PUSH1 0x0 MSTORE PUSH1 0x41 PUSH1 0x4 MSTORE PUSH1 0x24 PUSH1 0x0 REVERT JUMPDEST PUSH2 0x1CBF DUP3 PUSH2 0x1B60 JUMP JUMPDEST DUP2 ADD DUP2 DUP2 LT PUSH8 0xFFFFFFFFFFFFFFFF DUP3 GT OR ISZERO PUSH2 0x1CDE JUMPI PUSH2 0x1CDD PUSH2 0x1C87 JUMP JUMPDEST JUMPDEST DUP1 PUSH1 0x40 MSTORE POP POP POP JUMP JUMPDEST PUSH1 0x0 PUSH2 0x1CF1 PUSH2 0x1A90 JUMP JUMPDEST SWAP1 POP PUSH2 0x1CFD DUP3 DUP3 PUSH2 0x1CB6 JUMP JUMPDEST SWAP2 SWAP1 POP JUMP JUMPDEST PUSH1 0x0 PUSH8 0xFFFFFFFFFFFFFFFF DUP3 GT ISZERO PUSH2 0x1D1D JUMPI PUSH2 0x1D1C PUSH2 0x1C87 JUMP JUMPDEST JUMPDEST PUSH2 0x1D26 DUP3 PUSH2 0x1B60 JUMP JUMPDEST SWAP1 POP PUSH1 0x20 DUP2 ADD SWAP1 POP SWAP2 SWAP1 POP JUMP JUMPDEST DUP3 DUP2 DUP4 CALLDATACOPY PUSH1 0x0 DUP4 DUP4 ADD MSTORE POP POP POP JUMP JUMPDEST PUSH1 0x0 PUSH2 0x1D55 PUSH2 0x1D50 DUP5 PUSH2 0x1D02 JUMP JUMPDEST PUSH2 0x1CE7 JUMP JUMPDEST SWAP1 POP DUP3 DUP2 MSTORE PUSH1 0x20 DUP2 ADD DUP5 DUP5 DUP5 ADD GT ISZERO PUSH2 0x1D71 JUMPI PUSH2 0x1D70 PUSH2 0x1C82 JUMP JUMPDEST JUMPDEST PUSH2 0x1D7C DUP5 DUP3 DUP6 PUSH2 0x1D33 JUMP JUMPDEST POP SWAP4 SWAP3 POP POP POP JUMP JUMPDEST PUSH1 0x0 DUP3 PUSH1 0x1F DUP4 ADD SLT PUSH2 0x1D99 JUMPI PUSH2 0x1D98 PUSH2 0x1C7D JUMP JUMPDEST JUMPDEST DUP2 CALLDATALOAD PUSH2 0x1DA9 DUP5 DUP3 PUSH1 0x20 DUP7 ADD PUSH2 0x1D42 JUMP JUMPDEST SWAP2 POP POP SWAP3 SWAP2 POP POP JUMP JUMPDEST PUSH1 0x0 DUP2 ISZERO ISZERO SWAP1 POP SWAP2 SWAP1 POP JUMP JUMPDEST PUSH2 0x1DC7 DUP2 PUSH2 0x1DB2 JUMP JUMPDEST DUP2 EQ PUSH2 0x1DD2 JUMPI PUSH1 0x0 DUP1 REVERT JUMPDEST POP JUMP JUMPDEST PUSH1 0x0 DUP2 CALLDATALOAD SWAP1 POP PUSH2 0x1DE4 DUP2 PUSH2 0x1DBE JUMP JUMPDEST SWAP3 SWAP2 POP POP JUMP JUMPDEST PUSH1 0x0 DUP1 PUSH1 0x0 DUP1 PUSH1 0x0 PUSH1 0xA0 DUP7 DUP9 SUB SLT ISZERO PUSH2 0x1E06 JUMPI PUSH2 0x1E05 PUSH2 0x1A9A JUMP JUMPDEST JUMPDEST PUSH1 0x0 PUSH2 0x1E14 DUP9 DUP3 DUP10 ADD PUSH2 0x1AC5 JUMP JUMPDEST SWAP6 POP POP PUSH1 0x20 DUP7 ADD CALLDATALOAD PUSH8 0xFFFFFFFFFFFFFFFF DUP2 GT ISZERO PUSH2 0x1E35 JUMPI PUSH2 0x1E34 PUSH2 0x1A9F JUMP JUMPDEST JUMPDEST PUSH2 0x1E41 DUP9 DUP3 DUP10 ADD PUSH2 0x1D84 JUMP JUMPDEST SWAP5 POP POP PUSH1 0x40 PUSH2 0x1E52 DUP9 DUP3 DUP10 ADD PUSH2 0x1DD5 JUMP JUMPDEST SWAP4 POP POP PUSH1 0x60 PUSH2 0x1E63 DUP9 DUP3 DUP10 ADD PUSH2 0x1AC5 JUMP JUMPDEST SWAP3 POP POP PUSH1 0x80 DUP7 ADD CALLDATALOAD PUSH8 0xFFFFFFFFFFFFFFFF DUP2 GT ISZERO PUSH2 0x1E84 JUMPI PUSH2 0x1E83 PUSH2 0x1A9F JUMP JUMPDEST JUMPDEST PUSH2 0x1E90 DUP9 DUP3 DUP10 ADD PUSH2 0x1D84 JUMP JUMPDEST SWAP2 POP POP SWAP3 SWAP6 POP SWAP3 SWAP6 SWAP1 SWAP4 POP JUMP JUMPDEST PUSH1 0x0 PUSH1 0x20 DUP3 DUP5 SUB SLT ISZERO PUSH2 0x1EB3 JUMPI PUSH2 0x1EB2 PUSH2 0x1A9A JUMP JUMPDEST JUMPDEST PUSH1 0x0 PUSH2 0x1EC1 DUP5 DUP3 DUP6 ADD PUSH2 0x1AC5 JUMP JUMPDEST SWAP2 POP POP SWAP3 SWAP2 POP POP JUMP JUMPDEST PUSH32 0x4E487B7100000000000000000000000000000000000000000000000000000000 PUSH1 0x0 MSTORE PUSH1 0x21 PUSH1 0x4 MSTORE PUSH1 0x24 PUSH1 0x0 REVERT JUMPDEST PUSH1 0x8 DUP2 LT PUSH2 0x1F0A JUMPI PUSH2 0x1F09 PUSH2 0x1ECA JUMP JUMPDEST JUMPDEST POP JUMP JUMPDEST PUSH1 0x0 DUP2 SWAP1 POP PUSH2 0x1F1B DUP3 PUSH2 0x1EF9 JUMP JUMPDEST SWAP2 SWAP1 POP JUMP JUMPDEST PUSH1 0x0 PUSH2 0x1F2B DUP3 PUSH2 0x1F0D JUMP JUMPDEST SWAP1 POP SWAP2 SWAP1 POP JUMP JUMPDEST PUSH2 0x1F3B DUP2 PUSH2 0x1F20 JUMP JUMPDEST DUP3 MSTORE POP POP JUMP JUMPDEST PUSH2 0x1F4A DUP2 PUSH2 0x1DB2 JUMP JUMPDEST DUP3 MSTORE POP POP JUMP JUMPDEST PUSH1 0x0 PUSH20 0xFFFFFFFFFFFFFFFFFFFFFFFFFFFFFFFFFFFFFFFF DUP3 AND SWAP1 POP SWAP2 SWAP1 POP JUMP JUMPDEST PUSH1 0x0 PUSH2 0x1F7B DUP3 PUSH2 0x1F50 JUMP JUMPDEST SWAP1 POP SWAP2 SWAP1 POP JUMP JUMPDEST PUSH2 0x1F8B DUP2 PUSH2 0x1F70 JUMP JUMPDEST DUP3 MSTORE POP POP JUMP JUMPDEST PUSH1 0x0 PUSH2 0x140 DUP3 ADD SWAP1 POP PUSH2 0x1FA7 PUSH1 0x0 DUP4 ADD DUP14 PUSH2 0x1BAA JUMP JUMPDEST DUP2 DUP2 SUB PUSH1 0x20 DUP4 ADD MSTORE PUSH2 0x1FB9 DUP2 DUP13 PUSH2 0x1B71 JUMP JUMPDEST SWAP1 POP DUP2 DUP2 SUB PUSH1 0x40 DUP4 ADD MSTORE PUSH2 0x1FCD DUP2 DUP12 PUSH2 0x1B71 JUMP JUMPDEST SWAP1 POP PUSH2 0x1FDC PUSH1 0x60 DUP4 ADD DUP11 PUSH2 0x1F32 JUMP JUMPDEST PUSH2 0x1FE9 PUSH1 0x80 DUP4 ADD DUP10 PUSH2 0x1BAA JUMP JUMPDEST PUSH2 0x1FF6 PUSH1 0xA0 DUP4 ADD DUP9 PUSH2 0x1BAA JUMP JUMPDEST PUSH2 0x2003 PUSH1 0xC0 DUP4 ADD DUP8 PUSH2 0x1F41 JUMP JUMPDEST PUSH2 0x2010 PUSH1 0xE0 DUP4 ADD DUP7 PUSH2 0x1BAA JUMP JUMPDEST DUP2 DUP2 SUB PUSH2 0x100 DUP4 ADD MSTORE PUSH2 0x2023 DUP2 DUP6 PUSH2 0x1B71 JUMP JUMPDEST SWAP1 POP PUSH2 0x2033 PUSH2 0x120 DUP4 ADD DUP5 PUSH2 0x1F82 JUMP JUMPDEST SWAP12 SWAP11 POP POP POP POP POP POP POP POP POP POP POP JUMP JUMPDEST PUSH1 0x0 DUP1 PUSH1 0x0 DUP1 PUSH1 0x0 PUSH1 0xA0 DUP7 DUP9 SUB SLT ISZERO PUSH2 0x205E JUMPI PUSH2 0x205D PUSH2 0x1A9A JUMP JUMPDEST JUMPDEST PUSH1 0x0 PUSH2 0x206C DUP9 DUP3 DUP10 ADD PUSH2 0x1AC5 JUMP JUMPDEST SWAP6 POP POP PUSH1 0x20 DUP7 ADD CALLDATALOAD PUSH8 0xFFFFFFFFFFFFFFFF DUP2 GT ISZERO PUSH2 0x208D JUMPI PUSH2 0x208C PUSH2 0x1A9F JUMP JUMPDEST JUMPDEST PUSH2 0x2099 DUP9 DUP3 DUP10 ADD PUSH2 0x1D84 JUMP JUMPDEST SWAP5 POP POP PUSH1 0x40 DUP7 ADD CALLDATALOAD PUSH8 0xFFFFFFFFFFFFFFFF DUP2 GT ISZERO PUSH2 0x20BA JUMPI PUSH2 0x20B9 PUSH2 0x1A9F JUMP JUMPDEST JUMPDEST PUSH2 0x20C6 DUP9 DUP3 DUP10 ADD PUSH2 0x1D84 JUMP JUMPDEST SWAP4 POP POP PUSH1 0x60 PUSH2 0x20D7 DUP9 DUP3 DUP10 ADD PUSH2 0x1DD5 JUMP JUMPDEST SWAP3 POP POP PUSH1 0x80 PUSH2 0x20E8 DUP9 DUP3 DUP10 ADD PUSH2 0x1AC5 JUMP JUMPDEST SWAP2 POP POP SWAP3 SWAP6 POP SWAP3 SWAP6 SWAP1 SWAP4 POP JUMP JUMPDEST PUSH1 0x0 PUSH1 0x20 DUP3 ADD SWAP1 POP PUSH2 0x210A PUSH1 0x0 DUP4 ADD DUP5 PUSH2 0x1BAA JUMP JUMPDEST SWAP3 SWAP2 POP POP JUMP JUMPDEST PUSH1 0x0 DUP2 MLOAD SWAP1 POP SWAP2 SWAP1 POP JUMP JUMPDEST PUSH1 0x0 DUP3 DUP3 MSTORE PUSH1 0x20 DUP3 ADD SWAP1 POP SWAP3 SWAP2 POP POP JUMP JUMPDEST PUSH1 0x0 DUP2 SWAP1 POP PUSH1 0x20 DUP3 ADD SWAP1 POP SWAP2 SWAP1 POP JUMP JUMPDEST PUSH1 0x0 DUP3 DUP3 MSTORE PUSH1 0x20 DUP3 ADD SWAP1 POP SWAP3 SWAP2 POP POP JUMP JUMPDEST PUSH1 0x0 PUSH2 0x2158 DUP3 PUSH2 0x1B1A JUMP JUMPDEST PUSH2 0x2162 DUP2 DUP6 PUSH2 0x213C JUMP JUMPDEST SWAP4 POP PUSH2 0x2172 DUP2 DUP6 PUSH1 0x20 DUP7 ADD PUSH2 0x1B36 JUMP JUMPDEST PUSH2 0x217B DUP2 PUSH2 0x1B60 JUMP JUMPDEST DUP5 ADD SWAP2 POP POP SWAP3 SWAP2 POP POP JUMP JUMPDEST PUSH2 0x218F DUP2 PUSH2 0x1AA4 JUMP JUMPDEST DUP3 MSTORE POP POP JUMP JUMPDEST PUSH1 0x0 DUP3 DUP3 MSTORE PUSH1 0x20 DUP3 ADD SWAP1 POP SWAP3 SWAP2 POP POP JUMP JUMPDEST PUSH1 0x0 PUSH2 0x21B1 DUP3 PUSH2 0x1BB9 JUMP JUMPDEST PUSH2 0x21BB DUP2 DUP6 PUSH2 0x2195 JUMP JUMPDEST SWAP4 POP PUSH2 0x21CB DUP2 DUP6 PUSH1 0x20 DUP7 ADD PUSH2 0x1B36 JUMP JUMPDEST PUSH2 0x21D4 DUP2 PUSH2 0x1B60 JUMP JUMPDEST DUP5 ADD SWAP2 POP POP SWAP3 SWAP2 POP POP JUMP JUMPDEST PUSH1 0x0 PUSH1 0xA0 DUP4 ADD PUSH1 0x0 DUP4 ADD MLOAD DUP5 DUP3 SUB PUSH1 0x0 DUP7 ADD MSTORE PUSH2 0x21FC DUP3 DUP3 PUSH2 0x214D JUMP JUMPDEST SWAP2 POP POP PUSH1 0x20 DUP4 ADD MLOAD DUP5 DUP3 SUB PUSH1 0x20 DUP7 ADD MSTORE PUSH2 0x2216 DUP3 DUP3 PUSH2 0x214D JUMP JUMPDEST SWAP2 POP POP PUSH1 0x40 DUP4 ADD MLOAD PUSH2 0x222B PUSH1 0x40 DUP7 ADD DUP3 PUSH2 0x2186 JUMP JUMPDEST POP PUSH1 0x60 DUP4 ADD MLOAD DUP5 DUP3 SUB PUSH1 0x60 DUP7 ADD MSTORE PUSH2 0x2243 DUP3 DUP3 PUSH2 0x214D JUMP JUMPDEST SWAP2 POP POP PUSH1 0x80 DUP4 ADD MLOAD DUP5 DUP3 SUB PUSH1 0x80 DUP7 ADD MSTORE PUSH2 0x225D DUP3 DUP3 PUSH2 0x21A6 JUMP JUMPDEST SWAP2 POP POP DUP1 SWAP2 POP POP SWAP3 SWAP2 POP POP JUMP JUMPDEST PUSH1 0x0 PUSH2 0x2276 DUP4 DUP4 PUSH2 0x21DF JUMP JUMPDEST SWAP1 POP SWAP3 SWAP2 POP POP JUMP JUMPDEST PUSH1 0x0 PUSH1 0x20 DUP3 ADD SWAP1 POP SWAP2 SWAP1 POP JUMP JUMPDEST PUSH1 0x0 PUSH2 0x2296 DUP3 PUSH2 0x2110 JUMP JUMPDEST PUSH2 0x22A0 DUP2 DUP6 PUSH2 0x211B JUMP JUMPDEST SWAP4 POP DUP4 PUSH1 0x20 DUP3 MUL DUP6 ADD PUSH2 0x22B2 DUP6 PUSH2 0x212C JUMP JUMPDEST DUP1 PUSH1 0x0 JUMPDEST DUP6 DUP2 LT ISZERO PUSH2 0x22EE JUMPI DUP5 DUP5 SUB DUP10 MSTORE DUP2 MLOAD PUSH2 0x22CF DUP6 DUP3 PUSH2 0x226A JUMP JUMPDEST SWAP5 POP PUSH2 0x22DA DUP4 PUSH2 0x227E JUMP JUMPDEST SWAP3 POP PUSH1 0x20 DUP11 ADD SWAP10 POP POP PUSH1 0x1 DUP2 ADD SWAP1 POP PUSH2 0x22B6 JUMP JUMPDEST POP DUP3 SWAP8 POP DUP8 SWAP6 POP POP POP POP POP POP SWAP3 SWAP2 POP POP JUMP JUMPDEST PUSH1 0x0 PUSH1 0x20 DUP3 ADD SWAP1 POP DUP2 DUP2 SUB PUSH1 0x0 DUP4 ADD MSTORE PUSH2 0x231A DUP2 DUP5 PUSH2 0x228B JUMP JUMPDEST SWAP1 POP SWAP3 SWAP2 POP POP JUMP JUMPDEST PUSH1 0x0 PUSH1 0x20 DUP3 ADD SWAP1 POP PUSH2 0x2337 PUSH1 0x0 DUP4 ADD DUP5 PUSH2 0x1F82 JUMP JUMPDEST SWAP3 SWAP2 POP POP JUMP JUMPDEST PUSH2 0x2346 DUP2 PUSH2 0x1F20 JUMP JUMPDEST DUP3 MSTORE POP POP JUMP JUMPDEST PUSH1 0x0 DUP2 MLOAD SWAP1 POP SWAP2 SWAP1 POP JUMP JUMPDEST PUSH1 0x0 DUP3 DUP3 MSTORE PUSH1 0x20 DUP3 ADD SWAP1 POP SWAP3 SWAP2 POP POP JUMP JUMPDEST PUSH1 0x0 DUP2 SWAP1 POP PUSH1 0x20 DUP3 ADD SWAP1 POP SWAP2 SWAP1 POP JUMP JUMPDEST PUSH1 0x0 PUSH2 0x2384 DUP4 DUP4 PUSH2 0x214D JUMP JUMPDEST SWAP1 POP SWAP3 SWAP2 POP POP JUMP JUMPDEST PUSH1 0x0 PUSH1 0x20 DUP3 ADD SWAP1 POP SWAP2 SWAP1 POP JUMP JUMPDEST PUSH1 0x0 PUSH2 0x23A4 DUP3 PUSH2 0x234C JUMP JUMPDEST PUSH2 0x23AE DUP2 DUP6 PUSH2 0x2357 JUMP JUMPDEST SWAP4 POP DUP4 PUSH1 0x20 DUP3 MUL DUP6 ADD PUSH2 0x23C0 DUP6 PUSH2 0x2368 JUMP JUMPDEST DUP1 PUSH1 0x0 JUMPDEST DUP6 DUP2 LT ISZERO PUSH2 0x23FC JUMPI DUP5 DUP5 SUB DUP10 MSTORE DUP2 MLOAD PUSH2 0x23DD DUP6 DUP3 PUSH2 0x2378 JUMP JUMPDEST SWAP5 POP PUSH2 0x23E8 DUP4 PUSH2 0x238C JUMP JUMPDEST SWAP3 POP PUSH1 0x20 DUP11 ADD SWAP10 POP POP PUSH1 0x1 DUP2 ADD SWAP1 POP PUSH2 0x23C4 JUMP JUMPDEST POP DUP3 SWAP8 POP DUP8 SWAP6 POP POP POP POP POP POP SWAP3 SWAP2 POP POP JUMP JUMPDEST PUSH2 0x2417 DUP2 PUSH2 0x1DB2 JUMP JUMPDEST DUP3 MSTORE POP POP JUMP JUMPDEST PUSH2 0x2426 DUP2 PUSH2 0x1F70 JUMP JUMPDEST DUP3 MSTORE POP POP JUMP JUMPDEST PUSH1 0x0 PUSH2 0x160 DUP4 ADD PUSH1 0x0 DUP4 ADD MLOAD PUSH2 0x2445 PUSH1 0x0 DUP7 ADD DUP3 PUSH2 0x2186 JUMP JUMPDEST POP PUSH1 0x20 DUP4 ADD MLOAD DUP5 DUP3 SUB PUSH1 0x20 DUP7 ADD MSTORE PUSH2 0x245D DUP3 DUP3 PUSH2 0x214D JUMP JUMPDEST SWAP2 POP POP PUSH1 0x40 DUP4 ADD MLOAD DUP5 DUP3 SUB PUSH1 0x40 DUP7 ADD MSTORE PUSH2 0x2477 DUP3 DUP3 PUSH2 0x214D JUMP JUMPDEST SWAP2 POP POP PUSH1 0x60 DUP4 ADD MLOAD PUSH2 0x248C PUSH1 0x60 DUP7 ADD DUP3 PUSH2 0x233D JUMP JUMPDEST POP PUSH1 0x80 DUP4 ADD MLOAD DUP5 DUP3 SUB PUSH1 0x80 DUP7 ADD MSTORE PUSH2 0x24A4 DUP3 DUP3 PUSH2 0x2399 JUMP JUMPDEST SWAP2 POP POP PUSH1 0xA0 DUP4 ADD MLOAD PUSH2 0x24B9 PUSH1 0xA0 DUP7 ADD DUP3 PUSH2 0x2186 JUMP JUMPDEST POP PUSH1 0xC0 DUP4 ADD MLOAD PUSH2 0x24CC PUSH1 0xC0 DUP7 ADD DUP3 PUSH2 0x2186 JUMP JUMPDEST POP PUSH1 0xE0 DUP4 ADD MLOAD PUSH2 0x24DF PUSH1 0xE0 DUP7 ADD DUP3 PUSH2 0x240E JUMP JUMPDEST POP PUSH2 0x100 DUP4 ADD MLOAD PUSH2 0x24F4 PUSH2 0x100 DUP7 ADD DUP3 PUSH2 0x2186 JUMP JUMPDEST POP PUSH2 0x120 DUP4 ADD MLOAD DUP5 DUP3 SUB PUSH2 0x120 DUP7 ADD MSTORE PUSH2 0x250E DUP3 DUP3 PUSH2 0x214D JUMP JUMPDEST SWAP2 POP POP PUSH2 0x140 DUP4 ADD MLOAD PUSH2 0x2525 PUSH2 0x140 DUP7 ADD DUP3 PUSH2 0x241D JUMP JUMPDEST POP DUP1 SWAP2 POP POP SWAP3 SWAP2 POP POP JUMP JUMPDEST PUSH1 0x0 PUSH1 0x20 DUP3 ADD SWAP1 POP DUP2 DUP2 SUB PUSH1 0x0 DUP4 ADD MSTORE PUSH2 0x254A DUP2 DUP5 PUSH2 0x242C JUMP JUMPDEST SWAP1 POP SWAP3 SWAP2 POP POP JUMP JUMPDEST PUSH1 0x0 PUSH8 0xFFFFFFFFFFFFFFFF DUP3 GT ISZERO PUSH2 0x256D JUMPI PUSH2 0x256C PUSH2 0x1C87 JUMP JUMPDEST JUMPDEST PUSH2 0x2576 DUP3 PUSH2 0x1B60 JUMP JUMPDEST SWAP1 POP PUSH1 0x20 DUP2 ADD SWAP1 POP SWAP2 SWAP1 POP JUMP JUMPDEST PUSH1 0x0 PUSH2 0x2596 PUSH2 0x2591 DUP5 PUSH2 0x2552 JUMP JUMPDEST PUSH2 0x1CE7 JUMP JUMPDEST SWAP1 POP DUP3 DUP2 MSTORE PUSH1 0x20 DUP2 ADD DUP5 DUP5 DUP5 ADD GT ISZERO PUSH2 0x25B2 JUMPI PUSH2 0x25B1 PUSH2 0x1C82 JUMP JUMPDEST JUMPDEST PUSH2 0x25BD DUP5 DUP3 DUP6 PUSH2 0x1D33 JUMP JUMPDEST POP SWAP4 SWAP3 POP POP POP JUMP JUMPDEST PUSH1 0x0 DUP3 PUSH1 0x1F DUP4 ADD SLT PUSH2 0x25DA JUMPI PUSH2 0x25D9 PUSH2 0x1C7D JUMP JUMPDEST JUMPDEST DUP2 CALLDATALOAD PUSH2 0x25EA DUP5 DUP3 PUSH1 0x20 DUP7 ADD PUSH2 0x2583 JUMP JUMPDEST SWAP2 POP POP SWAP3 SWAP2 POP POP JUMP JUMPDEST PUSH1 0x0 DUP1 PUSH1 0x0 DUP1 PUSH1 0x0 PUSH1 0xA0 DUP7 DUP9 SUB SLT ISZERO PUSH2 0x260F JUMPI PUSH2 0x260E PUSH2 0x1A9A JUMP JUMPDEST JUMPDEST PUSH1 0x0 PUSH2 0x261D DUP9 DUP3 DUP10 ADD PUSH2 0x1AC5 JUMP JUMPDEST SWAP6 POP POP PUSH1 0x20 DUP7 ADD CALLDATALOAD PUSH8 0xFFFFFFFFFFFFFFFF DUP2 GT ISZERO PUSH2 0x263E JUMPI PUSH2 0x263D PUSH2 0x1A9F JUMP JUMPDEST JUMPDEST PUSH2 0x264A DUP9 DUP3 DUP10 ADD PUSH2 0x1D84 JUMP JUMPDEST SWAP5 POP POP PUSH1 0x40 DUP7 ADD CALLDATALOAD PUSH8 0xFFFFFFFFFFFFFFFF DUP2 GT ISZERO PUSH2 0x266B JUMPI PUSH2 0x266A PUSH2 0x1A9F JUMP JUMPDEST JUMPDEST PUSH2 0x2677 DUP9 DUP3 DUP10 ADD PUSH2 0x1D84 JUMP JUMPDEST SWAP4 POP POP PUSH1 0x60 DUP7 ADD CALLDATALOAD PUSH8 0xFFFFFFFFFFFFFFFF DUP2 GT ISZERO PUSH2 0x2698 JUMPI PUSH2 0x2697 PUSH2 0x1A9F JUMP JUMPDEST JUMPDEST PUSH2 0x26A4 DUP9 DUP3 DUP10 ADD PUSH2 0x1D84 JUMP JUMPDEST SWAP3 POP POP PUSH1 0x80 DUP7 ADD CALLDATALOAD PUSH8 0xFFFFFFFFFFFFFFFF DUP2 GT ISZERO PUSH2 0x26C5 JUMPI PUSH2 0x26C4 PUSH2 0x1A9F JUMP JUMPDEST JUMPDEST PUSH2 0x26D1 DUP9 DUP3 DUP10 ADD PUSH2 0x25C5 JUMP JUMPDEST SWAP2 POP POP SWAP3 SWAP6 POP SWAP3 SWAP6 SWAP1 SWAP4 POP JUMP JUMPDEST PUSH1 0x0 PUSH1 0x80 DUP3 ADD SWAP1 POP DUP2 DUP2 SUB PUSH1 0x0 DUP4 ADD MSTORE PUSH2 0x26F8 DUP2 DUP8 PUSH2 0x1B71 JUMP JUMPDEST SWAP1 POP PUSH2 0x2707 PUSH1 0x20 DUP4 ADD DUP7 PUSH2 0x1F41 JUMP JUMPDEST PUSH2 0x2714 PUSH1 0x40 DUP4 ADD DUP6 PUSH2 0x1BAA JUMP JUMPDEST DUP2 DUP2 SUB PUSH1 0x60 DUP4 ADD MSTORE PUSH2 0x2726 DUP2 DUP5 PUSH2 0x1B71 JUMP JUMPDEST SWAP1 POP SWAP6 SWAP5 POP POP POP POP POP JUMP JUMPDEST PUSH2 0x273A DUP2 PUSH2 0x1F70 JUMP JUMPDEST DUP2 EQ PUSH2 0x2745 JUMPI PUSH1 0x0 DUP1 REVERT JUMPDEST POP JUMP JUMPDEST PUSH1 0x0 DUP2 CALLDATALOAD SWAP1 POP PUSH2 0x2757 DUP2 PUSH2 0x2731 JUMP JUMPDEST SWAP3 SWAP2 POP POP JUMP JUMPDEST PUSH1 0x0 PUSH1 0x20 DUP3 DUP5 SUB SLT ISZERO PUSH2 0x2773 JUMPI PUSH2 0x2772 PUSH2 0x1A9A JUMP JUMPDEST JUMPDEST PUSH1 0x0 PUSH2 0x2781 DUP5 DUP3 DUP6 ADD PUSH2 0x2748 JUMP JUMPDEST SWAP2 POP POP SWAP3 SWAP2 POP POP JUMP JUMPDEST PUSH1 0x0 PUSH8 0xFFFFFFFFFFFFFFFF DUP3 GT ISZERO PUSH2 0x27A5 JUMPI PUSH2 0x27A4 PUSH2 0x1C87 JUMP JUMPDEST JUMPDEST PUSH1 0x20 DUP3 MUL SWAP1 POP PUSH1 0x20 DUP2 ADD SWAP1 POP SWAP2 SWAP1 POP JUMP JUMPDEST PUSH1 0x0 DUP1 REVERT JUMPDEST PUSH1 0x0 PUSH2 0x27CE PUSH2 0x27C9 DUP5 PUSH2 0x278A JUMP JUMPDEST PUSH2 0x1CE7 JUMP JUMPDEST SWAP1 POP DUP1 DUP4 DUP3 MSTORE PUSH1 0x20 DUP3 ADD SWAP1 POP PUSH1 0x20 DUP5 MUL DUP4 ADD DUP6 DUP2 GT ISZERO PUSH2 0x27F1 JUMPI PUSH2 0x27F0 PUSH2 0x27B6 JUMP JUMPDEST JUMPDEST DUP4 JUMPDEST DUP2 DUP2 LT ISZERO PUSH2 0x2838 JUMPI DUP1 CALLDATALOAD PUSH8 0xFFFFFFFFFFFFFFFF DUP2 GT ISZERO PUSH2 0x2816 JUMPI PUSH2 0x2815 PUSH2 0x1C7D JUMP JUMPDEST JUMPDEST DUP1 DUP7 ADD PUSH2 0x2823 DUP10 DUP3 PUSH2 0x1D84 JUMP JUMPDEST DUP6 MSTORE PUSH1 0x20 DUP6 ADD SWAP5 POP POP POP PUSH1 0x20 DUP2 ADD SWAP1 POP PUSH2 0x27F3 JUMP JUMPDEST POP POP POP SWAP4 SWAP3 POP POP POP JUMP JUMPDEST PUSH1 0x0 DUP3 PUSH1 0x1F DUP4 ADD SLT PUSH2 0x2857 JUMPI PUSH2 0x2856 PUSH2 0x1C7D JUMP JUMPDEST JUMPDEST DUP2 CALLDATALOAD PUSH2 0x2867 DUP5 DUP3 PUSH1 0x20 DUP7 ADD PUSH2 0x27BB JUMP JUMPDEST SWAP2 POP POP SWAP3 SWAP2 POP POP JUMP JUMPDEST PUSH1 0x0 DUP1 PUSH1 0x40 DUP4 DUP6 SUB SLT ISZERO PUSH2 0x2887 JUMPI PUSH2 0x2886 PUSH2 0x1A9A JUMP JUMPDEST JUMPDEST PUSH1 0x0 DUP4 ADD CALLDATALOAD PUSH8 0xFFFFFFFFFFFFFFFF DUP2 GT ISZERO PUSH2 0x28A5 JUMPI PUSH2 0x28A4 PUSH2 0x1A9F JUMP JUMPDEST JUMPDEST PUSH2 0x28B1 DUP6 DUP3 DUP7 ADD PUSH2 0x1D84 JUMP JUMPDEST SWAP3 POP POP PUSH1 0x20 DUP4 ADD CALLDATALOAD PUSH8 0xFFFFFFFFFFFFFFFF DUP2 GT ISZERO PUSH2 0x28D2 JUMPI PUSH2 0x28D1 PUSH2 0x1A9F JUMP JUMPDEST JUMPDEST PUSH2 0x28DE DUP6 DUP3 DUP7 ADD PUSH2 0x2842 JUMP JUMPDEST SWAP2 POP POP SWAP3 POP SWAP3 SWAP1 POP JUMP JUMPDEST PUSH32 0x4E487B7100000000000000000000000000000000000000000000000000000000 PUSH1 0x0 MSTORE PUSH1 0x22 PUSH1 0x4 MSTORE PUSH1 0x24 PUSH1 0x0 REVERT JUMPDEST PUSH1 0x0 PUSH1 0x2 DUP3 DIV SWAP1 POP PUSH1 0x1 DUP3 AND DUP1 PUSH2 0x292F JUMPI PUSH1 0x7F DUP3 AND SWAP2 POP JUMPDEST PUSH1 0x20 DUP3 LT DUP2 SUB PUSH2 0x2942 JUMPI PUSH2 0x2941 PUSH2 0x28E8 JUMP JUMPDEST JUMPDEST POP SWAP2 SWAP1 POP JUMP JUMPDEST PUSH1 0x0 DUP2 SWAP1 POP DUP2 PUSH1 0x0 MSTORE PUSH1 0x20 PUSH1 0x0 KECCAK256 SWAP1 POP SWAP2 SWAP1 POP JUMP JUMPDEST PUSH1 0x0 PUSH1 0x20 PUSH1 0x1F DUP4 ADD DIV SWAP1 POP SWAP2 SWAP1 POP JUMP JUMPDEST PUSH1 0x0 DUP3 DUP3 SHL SWAP1 POP SWAP3 SWAP2 POP POP JUMP JUMPDEST PUSH1 0x0 PUSH1 0x8 DUP4 MUL PUSH2 0x29AA PUSH32 0xFFFFFFFFFFFFFFFFFFFFFFFFFFFFFFFFFFFFFFFFFFFFFFFFFFFFFFFFFFFFFFFF DUP3 PUSH2 0x296D JUMP JUMPDEST PUSH2 0x29B4 DUP7 DUP4 PUSH2 0x296D JUMP JUMPDEST SWAP6 POP DUP1 NOT DUP5 AND SWAP4 POP DUP1 DUP7 AND DUP5 OR SWAP3 POP POP POP SWAP4 SWAP3 POP POP POP JUMP JUMPDEST PUSH1 0x0 DUP2 SWAP1 POP SWAP2 SWAP1 POP JUMP JUMPDEST PUSH1 0x0 PUSH2 0x29F1 PUSH2 0x29EC PUSH2 0x29E7 DUP5 PUSH2 0x1AA4 JUMP JUMPDEST PUSH2 0x29CC JUMP JUMPDEST PUSH2 0x1AA4 JUMP JUMPDEST SWAP1 POP SWAP2 SWAP1 POP JUMP JUMPDEST PUSH1 0x0 DUP2 SWAP1 POP SWAP2 SWAP1 POP JUMP JUMPDEST PUSH2 0x2A0B DUP4 PUSH2 0x29D6 JUMP JUMPDEST PUSH2 0x2A1F PUSH2 0x2A17 DUP3 PUSH2 0x29F8 JUMP JUMPDEST DUP5 DUP5 SLOAD PUSH2 0x297A JUMP JUMPDEST DUP3 SSTORE POP POP POP POP JUMP JUMPDEST PUSH1 0x0 SWAP1 JUMP JUMPDEST PUSH2 0x2A34 PUSH2 0x2A27 JUMP JUMPDEST PUSH2 0x2A3F DUP2 DUP5 DUP5 PUSH2 0x2A02 JUMP JUMPDEST POP POP POP JUMP JUMPDEST JUMPDEST DUP2 DUP2 LT ISZERO PUSH2 0x2A63 JUMPI PUSH2 0x2A58 PUSH1 0x0 DUP3 PUSH2 0x2A2C JUMP JUMPDEST PUSH1 0x1 DUP2 ADD SWAP1 POP PUSH2 0x2A45 JUMP JUMPDEST POP POP JUMP JUMPDEST PUSH1 0x1F DUP3 GT ISZERO PUSH2 0x2AA8 JUMPI PUSH2 0x2A79 DUP2 PUSH2 0x2948 JUMP JUMPDEST PUSH2 0x2A82 DUP5 PUSH2 0x295D JUMP JUMPDEST DUP2 ADD PUSH1 0x20 DUP6 LT ISZERO PUSH2 0x2A91 JUMPI DUP2 SWAP1 POP JUMPDEST PUSH2 0x2AA5 PUSH2 0x2A9D DUP6 PUSH2 0x295D JUMP JUMPDEST DUP4 ADD DUP3 PUSH2 0x2A44 JUMP JUMPDEST POP POP JUMPDEST POP POP POP JUMP JUMPDEST PUSH1 0x0 DUP3 DUP3 SHR SWAP1 POP SWAP3 SWAP2 POP POP JUMP JUMPDEST PUSH1 0x0 PUSH2 0x2ACB PUSH1 0x0 NOT DUP5 PUSH1 0x8 MUL PUSH2 0x2AAD JUMP JUMPDEST NOT DUP1 DUP4 AND SWAP2 POP POP SWAP3 SWAP2 POP POP JUMP JUMPDEST PUSH1 0x0 PUSH2 0x2AE4 DUP4 DUP4 PUSH2 0x2ABA JUMP JUMPDEST SWAP2 POP DUP3 PUSH1 0x2 MUL DUP3 OR SWAP1 POP SWAP3 SWAP2 POP POP JUMP JUMPDEST PUSH2 0x2AFD DUP3 PUSH2 0x1B1A JUMP JUMPDEST PUSH8 0xFFFFFFFFFFFFFFFF DUP2 GT ISZERO PUSH2 0x2B16 JUMPI PUSH2 0x2B15 PUSH2 0x1C87 JUMP JUMPDEST JUMPDEST PUSH2 0x2B20 DUP3 SLOAD PUSH2 0x2917 JUMP JUMPDEST PUSH2 0x2B2B DUP3 DUP3 DUP6 PUSH2 0x2A67 JUMP JUMPDEST PUSH1 0x0 PUSH1 0x20 SWAP1 POP PUSH1 0x1F DUP4 GT PUSH1 0x1 DUP2 EQ PUSH2 0x2B5E JUMPI PUSH1 0x0 DUP5 ISZERO PUSH2 0x2B4C JUMPI DUP3 DUP8 ADD MLOAD SWAP1 POP JUMPDEST PUSH2 0x2B56 DUP6 DUP3 PUSH2 0x2AD8 JUMP JUMPDEST DUP7 SSTORE POP PUSH2 0x2BBE JUMP JUMPDEST PUSH1 0x1F NOT DUP5 AND PUSH2 0x2B6C DUP7 PUSH2 0x2948 JUMP JUMPDEST PUSH1 0x0 JUMPDEST DUP3 DUP2 LT ISZERO PUSH2 0x2B94 JUMPI DUP5 DUP10 ADD MLOAD DUP3 SSTORE PUSH1 0x1 DUP3 ADD SWAP2 POP PUSH1 0x20 DUP6 ADD SWAP5 POP PUSH1 0x20 DUP2 ADD SWAP1 POP PUSH2 0x2B6F JUMP JUMPDEST DUP7 DUP4 LT ISZERO PUSH2 0x2BB1 JUMPI DUP5 DUP10 ADD MLOAD PUSH2 0x2BAD PUSH1 0x1F DUP10 AND DUP3 PUSH2 0x2ABA JUMP JUMPDEST DUP4 SSTORE POP JUMPDEST PUSH1 0x1 PUSH1 0x2 DUP9 MUL ADD DUP9 SSTORE POP POP POP JUMPDEST POP POP POP POP POP POP JUMP JUMPDEST PUSH1 0x0 PUSH1 0x40 DUP3 ADD SWAP1 POP DUP2 DUP2 SUB PUSH1 0x0 DUP4 ADD MSTORE PUSH2 0x2BE0 DUP2 DUP6 PUSH2 0x1B71 JUMP JUMPDEST SWAP1 POP PUSH2 0x2BEF PUSH1 0x20 DUP4 ADD DUP5 PUSH2 0x1F41 JUMP JUMPDEST SWAP4 SWAP3 POP POP POP JUMP JUMPDEST PUSH32 0x416C726561647920636F6D706C65746564000000000000000000000000000000 PUSH1 0x0 DUP3 ADD MSTORE POP JUMP JUMPDEST PUSH1 0x0 PUSH2 0x2C2C PUSH1 0x11 DUP4 PUSH2 0x1B25 JUMP JUMPDEST SWAP2 POP PUSH2 0x2C37 DUP3 PUSH2 0x2BF6 JUMP JUMPDEST PUSH1 0x20 DUP3 ADD SWAP1 POP SWAP2 SWAP1 POP JUMP JUMPDEST PUSH1 0x0 PUSH1 0x20 DUP3 ADD SWAP1 POP DUP2 DUP2 SUB PUSH1 0x0 DUP4 ADD MSTORE PUSH2 0x2C5B DUP2 PUSH2 0x2C1F JUMP JUMPDEST SWAP1 POP SWAP2 SWAP1 POP JUMP JUMPDEST PUSH1 0x0 PUSH1 0x40 DUP3 ADD SWAP1 POP PUSH2 0x2C77 PUSH1 0x0 DUP4 ADD DUP6 PUSH2 0x1F41 JUMP JUMPDEST DUP2 DUP2 SUB PUSH1 0x20 DUP4 ADD MSTORE PUSH2 0x2C89 DUP2 DUP5 PUSH2 0x1B71 JUMP JUMPDEST SWAP1 POP SWAP4 SWAP3 POP POP POP JUMP JUMPDEST PUSH32 0x4E487B7100000000000000000000000000000000000000000000000000000000 PUSH1 0x0 MSTORE PUSH1 0x11 PUSH1 0x4 MSTORE PUSH1 0x24 PUSH1 0x0 REVERT JUMPDEST PUSH1 0x0 PUSH2 0x2CCC DUP3 PUSH2 0x1AA4 JUMP JUMPDEST SWAP2 POP PUSH2 0x2CD7 DUP4 PUSH2 0x1AA4 JUMP JUMPDEST SWAP3 POP DUP3 DUP3 ADD SWAP1 POP DUP1 DUP3 GT ISZERO PUSH2 0x2CEF JUMPI PUSH2 0x2CEE PUSH2 0x2C92 JUMP JUMPDEST JUMPDEST SWAP3 SWAP2 POP POP JUMP JUMPDEST PUSH1 0x0 PUSH1 0x20 DUP3 ADD SWAP1 POP PUSH2 0x2D0A PUSH1 0x0 DUP4 ADD DUP5 PUSH2 0x1F32 JUMP JUMPDEST SWAP3 SWAP2 POP POP JUMP JUMPDEST PUSH32 0x446562617465206E6F7420666F756E6400000000000000000000000000000000 PUSH1 0x0 DUP3 ADD MSTORE POP JUMP JUMPDEST PUSH1 0x0 PUSH2 0x2D46 PUSH1 0x10 DUP4 PUSH2 0x1B25 JUMP JUMPDEST SWAP2 POP PUSH2 0x2D51 DUP3 PUSH2 0x2D10 JUMP JUMPDEST PUSH1 0x20 DUP3 ADD SWAP1 POP SWAP2 SWAP1 POP JUMP JUMPDEST PUSH1 0x0 PUSH1 0x20 DUP3 ADD SWAP1 POP DUP2 DUP2 SUB PUSH1 0x0 DUP4 ADD MSTORE PUSH2 0x2D75 DUP2 PUSH2 0x2D39 JUMP JUMPDEST SWAP1 POP SWAP2 SWAP1 POP JUMP JUMPDEST PUSH32 0x44656261746520656E6465640000000000000000000000000000000000000000 PUSH1 0x0 DUP3 ADD MSTORE POP JUMP JUMPDEST PUSH1 0x0 PUSH2 0x2DB2 PUSH1 0xC DUP4 PUSH2 0x1B25 JUMP JUMPDEST SWAP2 POP PUSH2 0x2DBD DUP3 PUSH2 0x2D7C JUMP JUMPDEST PUSH1 0x20 DUP3 ADD SWAP1 POP SWAP2 SWAP1 POP JUMP JUMPDEST PUSH1 0x0 PUSH1 0x20 DUP3 ADD SWAP1 POP DUP2 DUP2 SUB PUSH1 0x0 DUP4 ADD MSTORE PUSH2 0x2DE1 DUP2 PUSH2 0x2DA5 JUMP JUMPDEST SWAP1 POP SWAP2 SWAP1 POP JUMP JUMPDEST PUSH1 0x0 DUP2 SWAP1 POP DUP2 PUSH1 0x0 MSTORE PUSH1 0x20 PUSH1 0x0 KECCAK256 SWAP1 POP SWAP2 SWAP1 POP JUMP JUMPDEST PUSH1 0x1F DUP3 GT ISZERO PUSH2 0x2E3E JUMPI PUSH2 0x2E0F DUP2 PUSH2 0x2DE8 JUMP JUMPDEST PUSH2 0x2E18 DUP5 PUSH2 0x295D JUMP JUMPDEST DUP2 ADD PUSH1 0x20 DUP6 LT ISZERO PUSH2 0x2E27 JUMPI DUP2 SWAP1 POP JUMPDEST PUSH2 0x2E3B PUSH2 0x2E33 DUP6 PUSH2 0x295D JUMP JUMPDEST DUP4 ADD DUP3 PUSH2 0x2A44 JUMP JUMPDEST POP POP JUMPDEST POP POP POP JUMP JUMPDEST PUSH2 0x2E4C DUP3 PUSH2 0x1BB9 JUMP JUMPDEST PUSH8 0xFFFFFFFFFFFFFFFF DUP2 GT ISZERO PUSH2 0x2E65 JUMPI PUSH2 0x2E64 PUSH2 0x1C87 JUMP JUMPDEST JUMPDEST PUSH2 0x2E6F DUP3 SLOAD PUSH2 0x2917 JUMP JUMPDEST PUSH2 0x2E7A DUP3 DUP3 DUP6 PUSH2 0x2DFD JUMP JUMPDEST PUSH1 0x0 PUSH1 0x20 SWAP1 POP PUSH1 0x1F DUP4 GT PUSH1 0x1 DUP2 EQ PUSH2 0x2EAD JUMPI PUSH1 0x0 DUP5 ISZERO PUSH2 0x2E9B JUMPI DUP3 DUP8 ADD MLOAD SWAP1 POP JUMPDEST PUSH2 0x2EA5 DUP6 DUP3 PUSH2 0x2AD8 JUMP JUMPDEST DUP7 SSTORE POP PUSH2 0x2F0D JUMP JUMPDEST PUSH1 0x1F NOT DUP5 AND PUSH2 0x2EBB DUP7 PUSH2 0x2DE8 JUMP JUMPDEST PUSH1 0x0 JUMPDEST DUP3 DUP2 LT ISZERO PUSH2 0x2EE3 JUMPI DUP5 DUP10 ADD MLOAD DUP3 SSTORE PUSH1 0x1 DUP3 ADD SWAP2 POP PUSH1 0x20 DUP6 ADD SWAP5 POP PUSH1 0x20 DUP2 ADD SWAP1 POP PUSH2 0x2EBE JUMP JUMPDEST DUP7 DUP4 LT ISZERO PUSH2 0x2F00 JUMPI DUP5 DUP10 ADD MLOAD PUSH2 0x2EFC PUSH1 0x1F DUP10 AND DUP3 PUSH2 0x2ABA JUMP JUMPDEST DUP4 SSTORE POP JUMPDEST PUSH1 0x1 PUSH1 0x2 DUP9 MUL ADD DUP9 SSTORE POP POP POP JUMPDEST POP POP POP POP POP POP JUMP JUMPDEST PUSH1 0x0 PUSH1 0x40 DUP3 ADD SWAP1 POP DUP2 DUP2 SUB PUSH1 0x0 DUP4 ADD MSTORE PUSH2 0x2F2F DUP2 DUP6 PUSH2 0x1B71 JUMP JUMPDEST SWAP1 POP PUSH2 0x2F3E PUSH1 0x20 DUP4 ADD DUP5 PUSH2 0x1BAA JUMP JUMPDEST SWAP4 SWAP3 POP POP POP JUMP JUMPDEST PUSH1 0x0 PUSH2 0x2F50 DUP3 PUSH2 0x1AA4 JUMP JUMPDEST SWAP2 POP PUSH32 0xFFFFFFFFFFFFFFFFFFFFFFFFFFFFFFFFFFFFFFFFFFFFFFFFFFFFFFFFFFFFFFFF DUP3 SUB PUSH2 0x2F82 JUMPI PUSH2 0x2F81 PUSH2 0x2C92 JUMP JUMPDEST JUMPDEST PUSH1 0x1 DUP3 ADD SWAP1 POP SWAP2 SWAP1 POP JUMP JUMPDEST PUSH1 0x0 PUSH1 0x40 DUP3 ADD SWAP1 POP DUP2 DUP2 SUB PUSH1 0x0 DUP4 ADD MSTORE PUSH2 0x2FA7 DUP2 DUP6 PUSH2 0x1B71 JUMP JUMPDEST SWAP1 POP PUSH2 0x2FB6 PUSH1 0x20 DUP4 ADD DUP5 PUSH2 0x1F82 JUMP JUMPDEST SWAP4 SWAP3 POP POP POP JUMP INVALID LOG2 PUSH5 0x6970667358 0x22 SLT KECCAK256 EXTCODECOPY CALLCODE CREATE 0xEE 0x28 0xC3 0x28 CALLER 0xFC SHL PUSH15 0x52446D0C2398933037F50B054236A1 0x5C OR PREVRANDAO 0xB9 0xB1 0xA7 PUSH5 0x736F6C6343 STOP ADDMOD EQ STOP CALLER "},"methodIdentifiers":{"advancePhase(uint256)":"81aaf4ce","completeDebate(uint256,string,string,bool,uint256)":"602554ad","debateCounter()":"699769a3","debateStatements(uint256,uint256)":"0fab4c3e","debateVotes(uint256,uint256)":"cd7bd61b","debates(uint256)":"59758fcf","getDebate(uint256)":"98d336af","getDebateStatements(uint256)":"74005336","owner()":"8da5cb5b","recordStatement(uint256,string,string,string,bytes)":"c7dbbb36","recordVote(uint256,string,bool,uint256,string)":"581f3d0f","renounceOwnership()":"715018a6","startDebate(string,string[])":"f53ec146","transferOwnership(address)":"f2fde38b"}}}}}