{
  "_format": "hh-sol-artifact-1",
  "contractName": "DebateLedger",
  "sourceName": "contracts/DebateLedger.sol",
  "abi": [
    {
      "inputs": [],
      "stateMutability": "nonpayable",
      "type": "constructor"
    },
    {
      "inputs": [
        {
          "internalType": "address",
          "name": "owner",
          "type": "address"
        }
      ],
      "name": "OwnableInvalidOwner",
      "type": "error"
    },
    {
      "inputs": [
        {
          "internalType": "address",
          "name": "account",
          "type": "address"
        }
      ],
      "name": "OwnableUnauthorizedAccount",
      "type": "error"
    },
    {
      "anonymous": false,
      "inputs": [
        {
          "indexed": false,
          "internalType": "uint256",
          "name": "id",
          "type": "uint256"
        },
        {
          "indexed": false,
          "internalType": "string",
          "name": "topic",
          "type": "string"
        },
        {
          "indexed": false,
          "internalType": "string",
          "name": "ipfsCid",
          "type": "string"
        }
      ],
      "name": "DebateFinalized",
      "type": "event"
    },
    {
      "anonymous": false,
      "inputs": [
        {
          "indexed": true,
          "internalType": "address",
          "name": "previousOwner",
          "type": "address"
        },
        {
          "indexed": true,
          "internalType": "address",
          "name": "newOwner",
          "type": "address"
        }
      ],
      "name": "OwnershipTransferred",
      "type": "event"
    },
    {
      "inputs": [
        {
          "internalType": "uint256",
          "name": "",
          "type": "uint256"
        }
      ],
      "name": "debates",
      "outputs": [
        {
          "internalType": "uint256",
          "name": "id",
          "type": "uint256"
        },
        {
          "internalType": "string",
          "name": "topic",
          "type": "string"
        },
        {
          "internalType": "string",
          "name": "ipfsCid",
          "type": "string"
        },
        {
          "internalType": "uint256",
          "name": "timestamp",
          "type": "uint256"
        },
        {
          "internalType": "bool",
          "name": "isFinalized",
          "type": "bool"
        }
      ],
      "stateMutability": "view",
      "type": "function"
    },
    {
      "inputs": [
        {
          "internalType": "uint256",
          "name": "_id",
          "type": "uint256"
        }
      ],
      "name": "getDebate",
      "outputs": [
        {
          "components": [
            {
              "internalType": "uint256",
              "name": "id",
              "type": "uint256"
            },
            {
              "internalType": "string",
              "name": "topic",
              "type": "string"
            },
            {
              "internalType": "string",
              "name": "ipfsCid",
              "type": "string"
            },
            {
              "internalType": "uint256",
              "name": "timestamp",
              "type": "uint256"
            },
            {
              "internalType": "bool",
              "name": "isFinalized",
              "type": "bool"
            }
          ],
          "internalType": "struct DebateLedger.DebateRecord",
          "name": "",
          "type": "tuple"
        }
      ],
      "stateMutability": "view",
      "type": "function"
    },
    {
      "inputs": [],
      "name": "nextId",
      "outputs": [
        {
          "internalType": "uint256",
          "name": "",
          "type": "uint256"
        }
      ],
      "stateMutability": "view",
      "type": "function"
    },
    {
      "inputs": [],
      "name": "owner",
      "outputs": [
        {
          "internalType": "address",
          "name": "",
          "type": "address"
        }
      ],
      "stateMutability": "view",
      "type": "function"
    },
    {
      "inputs": [
        {
          "internalType": "string",
          "name": "_topic",
          "type": "string"
        },
        {
          "internalType": "string",
          "name": "_ipfsCid",
          "type": "string"
        }
      ],
      "name": "recordDebate",
      "outputs": [],
      "stateMutability": "nonpayable",
      "type": "function"
    },
    {
      "inputs": [],
      "name": "renounceOwnership",
      "outputs": [],
      "stateMutability": "nonpayable",
      "type": "function"
    },
    {
      "inputs": [
        {
          "internalType": "address",
          "name": "newOwner",
          "type": "address"
        }
      ],
      "name": "transferOwnership",
      "outputs": [],
      "stateMutability": "nonpayable",
      "type": "function"
    }
  ],
  "bytecode": "0x608060405234801561001057600080fd5b5033600073ffffffffffffffffffffffffffffffffffffffff168173ffffffffffffffffffffffffffffffffffffffff16036100845760006040517f1e4fbdf700000000000000000000000000000000000000000000000000000000815260040161007b919061019e565b60405180910390fd5b6100938161009960201b60201c565b506101b9565b60008060009054906101000a900473ffffffffffffffffffffffffffffffffffffffff169050816000806101000a81548173ffffffffffffffffffffffffffffffffffffffff021916908373ffffffffffffffffffffffffffffffffffffffff1602179055508173ffffffffffffffffffffffffffffffffffffffff168173ffffffffffffffffffffffffffffffffffffffff167f8be0079c531659141344cd1fd0a4f28419497f9722a3daafe3b4186f6b6457e060405160405180910390a35050565b600073ffffffffffffffffffffffffffffffffffffffff82169050919050565b60006101888261015d565b9050919050565b6101988161017d565b82525050565b60006020820190506101b3600083018461018f565b92915050565b61106f806101c86000396000f3fe608060405234801561001057600080fd5b506004361061007d5760003560e01c80638da5cb5b1161005b5780638da5cb5b146100de57806398d336af146100fc578063b62174451461012c578063f2fde38b146101485761007d565b806359758fcf1461008257806361b8ce8c146100b6578063715018a6146100d4575b600080fd5b61009c600480360381019061009791906107d3565b610164565b6040516100ad9594939291906108ba565b60405180910390f35b6100be6102b7565b6040516100cb919061091b565b60405180910390f35b6100dc6102bd565b005b6100e66102d1565b6040516100f39190610977565b60405180910390f35b610116600480360381019061011191906107d3565b6102fa565b6040516101239190610a77565b60405180910390f35b61014660048036038101906101419190610bce565b61047a565b005b610162600480360381019061015d9190610c72565b61057f565b005b600260205280600052604060002060009150905080600001549080600101805461018d90610cce565b80601f01602080910402602001604051908101604052809291908181526020018280546101b990610cce565b80156102065780601f106101db57610100808354040283529160200191610206565b820191906000526020600020905b8154815290600101906020018083116101e957829003601f168201915b50505050509080600201805461021b90610cce565b80601f016020809104026020016040519081016040528092919081815260200182805461024790610cce565b80156102945780601f1061026957610100808354040283529160200191610294565b820191906000526020600020905b81548152906001019060200180831161027757829003601f168201915b5050505050908060030154908060040160009054906101000a900460ff16905085565b60015481565b6102c5610605565b6102cf600061068c565b565b60008060009054906101000a900473ffffffffffffffffffffffffffffffffffffffff16905090565b610302610758565b600260008381526020019081526020016000206040518060a00160405290816000820154815260200160018201805461033a90610cce565b80601f016020809104026020016040519081016040528092919081815260200182805461036690610cce565b80156103b35780601f10610388576101008083540402835291602001916103b3565b820191906000526020600020905b81548152906001019060200180831161039657829003601f168201915b505050505081526020016002820180546103cc90610cce565b80601f01602080910402602001604051908101604052809291908181526020018280546103f890610cce565b80156104455780601f1061041a57610100808354040283529160200191610445565b820191906000526020600020905b81548152906001019060200180831161042857829003601f168201915b50505050508152602001600382015481526020016004820160009054906101000a900460ff1615151515815250509050919050565b610482610605565b6040518060a001604052806001548152602001838152602001828152602001428152602001600115158152506002600060015481526020019081526020016000206000820151816000015560208201518160010190816104e29190610eab565b5060408201518160020190816104f89190610eab565b506060820151816003015560808201518160040160006101000a81548160ff0219169083151502179055509050507ff60ab9f0c96f8786ebb31425733aa7b79ee342707e72a158479c1be63010b40b600154838360405161055b93929190610f7d565b60405180910390a16001600081548092919061057690610ff1565b91905055505050565b610587610605565b600073ffffffffffffffffffffffffffffffffffffffff168173ffffffffffffffffffffffffffffffffffffffff16036105f95760006040517f1e4fbdf70000000000000000000000000000000000000000000000000000000081526004016105f09190610977565b60405180910390fd5b6106028161068c565b50565b61060d610750565b73ffffffffffffffffffffffffffffffffffffffff1661062b6102d1565b73ffffffffffffffffffffffffffffffffffffffff161461068a5761064e610750565b6040517f118cdaa70000000000000000000000000000000000000000000000000000000081526004016106819190610977565b60405180910390fd5b565b60008060009054906101000a900473ffffffffffffffffffffffffffffffffffffffff169050816000806101000a81548173ffffffffffffffffffffffffffffffffffffffff021916908373ffffffffffffffffffffffffffffffffffffffff1602179055508173ffffffffffffffffffffffffffffffffffffffff168173ffffffffffffffffffffffffffffffffffffffff167f8be0079c531659141344cd1fd0a4f28419497f9722a3daafe3b4186f6b6457e060405160405180910390a35050565b600033905090565b6040518060a00160405280600081526020016060815260200160608152602001600081526020016000151581525090565b6000604051905090565b600080fd5b600080fd5b6000819050919050565b6107b08161079d565b81146107bb57600080fd5b50565b6000813590506107cd816107a7565b92915050565b6000602082840312156107e9576107e8610793565b5b60006107f7848285016107be565b91505092915050565b6108098161079d565b82525050565b600081519050919050565b600082825260208201905092915050565b60005b8381101561084957808201518184015260208101905061082e565b60008484015250505050565b6000601f19601f8301169050919050565b60006108718261080f565b61087b818561081a565b935061088b81856020860161082b565b61089481610855565b840191505092915050565b60008115159050919050565b6108b48161089f565b82525050565b600060a0820190506108cf6000830188610800565b81810360208301526108e18187610866565b905081810360408301526108f58186610866565b90506109046060830185610800565b61091160808301846108ab565b9695505050505050565b60006020820190506109306000830184610800565b92915050565b600073ffffffffffffffffffffffffffffffffffffffff82169050919050565b600061096182610936565b9050919050565b61097181610956565b82525050565b600060208201905061098c6000830184610968565b92915050565b61099b8161079d565b82525050565b600082825260208201905092915050565b60006109bd8261080f565b6109c781856109a1565b93506109d781856020860161082b565b6109e081610855565b840191505092915050565b6109f48161089f565b82525050565b600060a083016000830151610a126000860182610992565b5060208301518482036020860152610a2a82826109b2565b91505060408301518482036040860152610a4482826109b2565b9150506060830151610a596060860182610992565b506080830151610a6c60808601826109eb565b508091505092915050565b60006020820190508181036000830152610a9181846109fa565b905092915050565b600080fd5b600080fd5b7f4e487b7100000000000000000000000000000000000000000000000000000000600052604160045260246000fd5b610adb82610855565b810181811067ffffffffffffffff82111715610afa57610af9610aa3565b5b80604052505050565b6000610b0d610789565b9050610b198282610ad2565b919050565b600067ffffffffffffffff821115610b3957610b38610aa3565b5b610b4282610855565b9050602081019050919050565b82818337600083830152505050565b6000610b71610b6c84610b1e565b610b03565b905082815260208101848484011115610b8d57610b8c610a9e565b5b610b98848285610b4f565b509392505050565b600082601f830112610bb557610bb4610a99565b5b8135610bc5848260208601610b5e565b91505092915050565b60008060408385031215610be557610be4610793565b5b600083013567ffffffffffffffff811115610c0357610c02610798565b5b610c0f85828601610ba0565b925050602083013567ffffffffffffffff811115610c3057610c2f610798565b5b610c3c85828601610ba0565b9150509250929050565b610c4f81610956565b8114610c5a57600080fd5b50565b600081359050610c6c81610c46565b92915050565b600060208284031215610c8857610c87610793565b5b6000610c9684828501610c5d565b91505092915050565b7f4e487b7100000000000000000000000000000000000000000000000000000000600052602260045260246000fd5b60006002820490506001821680610ce657607f821691505b602082108103610cf957610cf8610c9f565b5b50919050565b60008190508160005260206000209050919050565b60006020601f8301049050919050565b600082821b905092915050565b600060088302610d617fffffffffffffffffffffffffffffffffffffffffffffffffffffffffffffffff82610d24565b610d6b8683610d24565b95508019841693508086168417925050509392505050565b6000819050919050565b6000610da8610da3610d9e8461079d565b610d83565b61079d565b9050919050565b6000819050919050565b610dc283610d8d565b610dd6610dce82610daf565b848454610d31565b825550505050565b600090565b610deb610dde565b610df6818484610db9565b505050565b5b81811015610e1a57610e0f600082610de3565b600181019050610dfc565b5050565b601f821115610e5f57610e3081610cff565b610e3984610d14565b81016020851015610e48578190505b610e5c610e5485610d14565b830182610dfb565b50505b505050565b600082821c905092915050565b6000610e8260001984600802610e64565b1980831691505092915050565b6000610e9b8383610e71565b9150826002028217905092915050565b610eb48261080f565b67ffffffffffffffff811115610ecd57610ecc610aa3565b5b610ed78254610cce565b610ee2828285610e1e565b600060209050601f831160018114610f155760008415610f03578287015190505b610f0d8582610e8f565b865550610f75565b601f198416610f2386610cff565b60005b82811015610f4b57848901518255600182019150602085019450602081019050610f26565b86831015610f685784890151610f64601f891682610e71565b8355505b6001600288020188555050505b505050505050565b6000606082019050610f926000830186610800565b8181036020830152610fa48185610866565b90508181036040830152610fb88184610866565b9050949350505050565b7f4e487b7100000000000000000000000000000000000000000000000000000000600052601160045260246000fd5b6000610ffc8261079d565b91507fffffffffffffffffffffffffffffffffffffffffffffffffffffffffffffffff820361102e5761102d610fc2565b5b60018201905091905056fea264697066735822122005738357fe037c60c82f894b909deab6760343623bb71f876fcae82531f20ee764736f6c63430008140033",
  "linkReferences": {},
  "deployedLinkReferences": {}
}